{
  "contractName": "Coinflip",
  "abi": [
    {
      "inputs": [],
      "payable": false,
      "stateMutability": "nonpayable",
      "type": "constructor"
    },
    {
      "anonymous": false,
      "inputs": [
        {
          "indexed": false,
          "internalType": "string",
          "name": "description",
          "type": "string"
        }
      ],
      "name": "LogNewProvableQuery",
      "type": "event"
    },
    {
      "anonymous": false,
      "inputs": [
        {
          "indexed": false,
          "internalType": "uint256",
          "name": "randomNumber",
          "type": "uint256"
        }
      ],
      "name": "generatedRandomNumber",
      "type": "event"
    },
    {
      "constant": true,
      "inputs": [],
      "name": "balance",
      "outputs": [
        {
          "internalType": "uint256",
          "name": "",
          "type": "uint256"
        }
      ],
      "payable": false,
      "stateMutability": "view",
      "type": "function"
    },
    {
      "constant": true,
      "inputs": [
        {
          "internalType": "address",
          "name": "",
          "type": "address"
        }
      ],
      "name": "bettings",
      "outputs": [
        {
          "internalType": "bool",
          "name": "",
          "type": "bool"
        }
      ],
      "payable": false,
      "stateMutability": "view",
      "type": "function"
    },
    {
      "constant": true,
      "inputs": [],
      "name": "latestNumber",
      "outputs": [
        {
          "internalType": "uint256",
          "name": "",
          "type": "uint256"
        }
      ],
      "payable": false,
      "stateMutability": "view",
      "type": "function"
    },
    {
      "constant": true,
      "inputs": [],
      "name": "owner",
      "outputs": [
        {
          "internalType": "address",
          "name": "",
          "type": "address"
        }
      ],
      "payable": false,
      "stateMutability": "view",
      "type": "function"
    },
    {
      "constant": true,
      "inputs": [
        {
          "internalType": "uint256",
          "name": "",
          "type": "uint256"
        }
      ],
      "name": "waiting",
      "outputs": [
        {
          "internalType": "address",
          "name": "player",
          "type": "address"
        },
        {
          "internalType": "uint256",
          "name": "betValue",
          "type": "uint256"
        }
      ],
      "payable": false,
      "stateMutability": "view",
      "type": "function"
    },
    {
      "constant": false,
      "inputs": [
        {
          "internalType": "bytes32",
          "name": "_myid",
          "type": "bytes32"
        },
        {
          "internalType": "string",
          "name": "_result",
          "type": "string"
        }
      ],
      "name": "__callback",
      "outputs": [],
      "payable": false,
      "stateMutability": "nonpayable",
      "type": "function"
    },
    {
      "constant": false,
      "inputs": [
        {
          "internalType": "bytes32",
          "name": "_queryId",
          "type": "bytes32"
        },
        {
          "internalType": "string",
          "name": "_result",
          "type": "string"
        },
        {
          "internalType": "bytes",
          "name": "_proof",
          "type": "bytes"
        }
      ],
      "name": "__callback",
      "outputs": [],
      "payable": false,
      "stateMutability": "nonpayable",
      "type": "function"
    },
    {
      "constant": false,
      "inputs": [],
      "name": "update",
      "outputs": [],
      "payable": true,
      "stateMutability": "payable",
      "type": "function"
    },
    {
      "constant": true,
      "inputs": [],
      "name": "random",
      "outputs": [
        {
          "internalType": "bool",
          "name": "",
          "type": "bool"
        }
      ],
      "payable": false,
      "stateMutability": "view",
      "type": "function"
    },
    {
      "constant": false,
      "inputs": [
        {
          "internalType": "bool",
          "name": "bet",
          "type": "bool"
        }
      ],
      "name": "flipCoin",
      "outputs": [],
      "payable": true,
      "stateMutability": "payable",
      "type": "function"
    },
    {
      "constant": false,
      "inputs": [],
      "name": "deposit",
      "outputs": [],
      "payable": true,
      "stateMutability": "payable",
      "type": "function"
    },
    {
      "constant": true,
      "inputs": [
        {
          "internalType": "address",
          "name": "player",
          "type": "address"
        }
      ],
      "name": "getLastFlip",
      "outputs": [
        {
          "internalType": "bool",
          "name": "",
          "type": "bool"
        }
      ],
      "payable": false,
      "stateMutability": "view",
      "type": "function"
    },
    {
      "constant": true,
      "inputs": [],
      "name": "getBalance",
      "outputs": [
        {
          "internalType": "uint256",
          "name": "",
          "type": "uint256"
        }
      ],
      "payable": false,
      "stateMutability": "view",
      "type": "function"
    },
    {
      "constant": false,
      "inputs": [],
      "name": "withdrawAll",
      "outputs": [
        {
          "internalType": "uint256",
          "name": "",
          "type": "uint256"
        }
      ],
      "payable": false,
      "stateMutability": "nonpayable",
      "type": "function"
    },
    {
      "constant": false,
      "inputs": [],
      "name": "fundContract",
      "outputs": [
        {
          "internalType": "uint256",
          "name": "",
          "type": "uint256"
        }
      ],
      "payable": true,
      "stateMutability": "payable",
      "type": "function"
    }
  ],
  "bytecode": "0x60806040523480156200001157600080fd5b50336000806101000a81548173ffffffffffffffffffffffffffffffffffffffff021916908373ffffffffffffffffffffffffffffffffffffffff160217905550620000626200006860201b60201c565b62001f95565b6000809050600062030d40905060006200008b83600184620000de60201b60201c565b90507fc4dc360d0a9c0677a3379ae0a3d81e887f761e65fdf3d7e00859d1bcd3c4738960405180806020018281038252603681526020018062004af26036913960400191505060405180910390a1505050565b60008083118015620000f1575060208311155b620000fb57600080fd5b600a84029350606060016040519080825280601f01601f191660200182016040528015620001385781602001600182028038833980820191505090505b5090508360f81b816000815181106200014d57fe5b60200101907effffffffffffffffffffffffffffffffffffffffffffffffffffffffffffff1916908160001a905350606060206040519080825280601f01601f191660200182016040528015620001b35781602001600182028038833980820191505090505b509050606060206040519080825280601f01601f191660200182016040528015620001ed5781602001600182028038833980820191505090505b509050600062000202620006b160201b60201c565b905060208352424118600143034018602084015260208252806020830152606060206040519080825280601f01601f191660200182016040528015620002575781602001600182028038833980820191505090505b509050886020820152606060086040519080825280601f01601f191660200182016040528015620002975781602001600182028038833980820191505090505b509050620002b28260186008846000620009ed60201b60201c565b50620002bd62001ea4565b604051806080016040528087815260200188815260200186815260200184815250905060006200032a6040518060400160405280600681526020017f72616e646f6d0000000000000000000000000000000000000000000000000000815250838c62000a4f60201b60201c565b9050606060086040519080825280601f01601f191660200182016040528015620003635781602001600182028038833980820191505090505b50905060208401517f0100000000000000000000000000000000000000000000000000000000000000810460278301537e01000000000000000000000000000000000000000000000000000000000000810460268301537d010000000000000000000000000000000000000000000000000000000000810460258301537c0100000000000000000000000000000000000000000000000000000000810460248301537b01000000000000000000000000000000000000000000000000000000810460238301537a0100000000000000000000000000000000000000000000000000008104602283015379010000000000000000000000000000000000000000000000000081046021830153780100000000000000000000000000000000000000000000000081046020830153506200069e828285600160048110620004a457fe5b6020020151600287600060048110620004b957fe5b60200201516040518082805190602001908083835b60208310620004f35780518252602082019150602081019050602083039250620004ce565b6001836020036101000a038019825116818451168082178552505050505050905001915050602060405180830381855afa15801562000536573d6000803e3d6000fd5b5050506040513d60208110156200054c57600080fd5b8101908080519060200190929190505050876002600481106200056b57fe5b60200201516040516020018085805190602001908083835b60208310620005a8578051825260208201915060208101905060208303925062000583565b6001836020036101000a03801982511681845116808217855250505050505090500184805190602001908083835b60208310620005fb5780518252602082019150602081019050602083039250620005d6565b6001836020036101000a03801982511681845116808217855250505050505090500183815260200182805190602001908083835b602083106200065457805182526020820191506020810190506020830392506200062f565b6001836020036101000a0380198251168184511680821785525050505050509050019450505050506040516020818303038152906040528051906020012062000de960201b60201c565b8199505050505050505050509392505050565b60008073ffffffffffffffffffffffffffffffffffffffff16600260009054906101000a900473ffffffffffffffffffffffffffffffffffffffff1673ffffffffffffffffffffffffffffffffffffffff161480620007425750600062000740600260009054906101000a900473ffffffffffffffffffffffffffffffffffffffff1662000e0560201b60201c565b145b156200075c576200075a600062000e1060201b60201c565b505b600260009054906101000a900473ffffffffffffffffffffffffffffffffffffffff1673ffffffffffffffffffffffffffffffffffffffff166338cc48316040518163ffffffff1660e01b8152600401602060405180830381600087803b158015620007c757600080fd5b505af1158015620007dc573d6000803e3d6000fd5b505050506040513d6020811015620007f357600080fd5b810190808051906020019092919050505073ffffffffffffffffffffffffffffffffffffffff16600160009054906101000a900473ffffffffffffffffffffffffffffffffffffffff1673ffffffffffffffffffffffffffffffffffffffff16146200094257600260009054906101000a900473ffffffffffffffffffffffffffffffffffffffff1673ffffffffffffffffffffffffffffffffffffffff166338cc48316040518163ffffffff1660e01b8152600401602060405180830381600087803b158015620008c457600080fd5b505af1158015620008d9573d6000803e3d6000fd5b505050506040513d6020811015620008f057600080fd5b8101908080519060200190929190505050600160006101000a81548173ffffffffffffffffffffffffffffffffffffffff021916908373ffffffffffffffffffffffffffffffffffffffff1602179055505b600160009054906101000a900473ffffffffffffffffffffffffffffffffffffffff1673ffffffffffffffffffffffffffffffffffffffff1663abaa5f3e6040518163ffffffff1660e01b815260040160206040518083038186803b158015620009ab57600080fd5b505afa158015620009c0573d6000803e3d6000fd5b505050506040513d6020811015620009d757600080fd5b8101908080519060200190929190505050905090565b606060008285019050808451101562000a0557600080fd5b600086602001905060008460200190505b86886020010182101562000a40578189015180828801525060208201915060208101905062000a16565b85935050505095945050505050565b60008073ffffffffffffffffffffffffffffffffffffffff16600260009054906101000a900473ffffffffffffffffffffffffffffffffffffffff1673ffffffffffffffffffffffffffffffffffffffff16148062000ae05750600062000ade600260009054906101000a900473ffffffffffffffffffffffffffffffffffffffff1662000e0560201b60201c565b145b1562000afa5762000af8600062000e1060201b60201c565b505b600260009054906101000a900473ffffffffffffffffffffffffffffffffffffffff1673ffffffffffffffffffffffffffffffffffffffff166338cc48316040518163ffffffff1660e01b8152600401602060405180830381600087803b15801562000b6557600080fd5b505af115801562000b7a573d6000803e3d6000fd5b505050506040513d602081101562000b9157600080fd5b810190808051906020019092919050505073ffffffffffffffffffffffffffffffffffffffff16600160009054906101000a900473ffffffffffffffffffffffffffffffffffffffff1673ffffffffffffffffffffffffffffffffffffffff161462000ce057600260009054906101000a900473ffffffffffffffffffffffffffffffffffffffff1673ffffffffffffffffffffffffffffffffffffffff166338cc48316040518163ffffffff1660e01b8152600401602060405180830381600087803b15801562000c6257600080fd5b505af115801562000c77573d6000803e3d6000fd5b505050506040513d602081101562000c8e57600080fd5b8101908080519060200190929190505050600160006101000a81548173ffffffffffffffffffffffffffffffffffffffff021916908373ffffffffffffffffffffffffffffffffffffffff1602179055505b6060600460405190808252806020026020018201604052801562000d1957816020015b606081526020019060019003908162000d035790505b5090508360006004811062000d2a57fe5b60200201518160008151811062000d3d57fe5b60200260200101819052508360016004811062000d5657fe5b60200201518160018151811062000d6957fe5b60200260200101819052508360026004811062000d8257fe5b60200201518160028151811062000d9557fe5b60200260200101819052508360036004811062000dae57fe5b60200201518160038151811062000dc157fe5b602002602001018190525062000ddf85828562000e2960201b60201c565b9150509392505050565b8060046000848152602001908152602001600020819055505050565b6000813b9050919050565b600062000e22620013c160201b60201c565b9050919050565b60008073ffffffffffffffffffffffffffffffffffffffff16600260009054906101000a900473ffffffffffffffffffffffffffffffffffffffff1673ffffffffffffffffffffffffffffffffffffffff16148062000eba5750600062000eb8600260009054906101000a900473ffffffffffffffffffffffffffffffffffffffff1662000e0560201b60201c565b145b1562000ed45762000ed2600062000e1060201b60201c565b505b600260009054906101000a900473ffffffffffffffffffffffffffffffffffffffff1673ffffffffffffffffffffffffffffffffffffffff166338cc48316040518163ffffffff1660e01b8152600401602060405180830381600087803b15801562000f3f57600080fd5b505af115801562000f54573d6000803e3d6000fd5b505050506040513d602081101562000f6b57600080fd5b810190808051906020019092919050505073ffffffffffffffffffffffffffffffffffffffff16600160009054906101000a900473ffffffffffffffffffffffffffffffffffffffff1673ffffffffffffffffffffffffffffffffffffffff1614620010ba57600260009054906101000a900473ffffffffffffffffffffffffffffffffffffffff1673ffffffffffffffffffffffffffffffffffffffff166338cc48316040518163ffffffff1660e01b8152600401602060405180830381600087803b1580156200103c57600080fd5b505af115801562001051573d6000803e3d6000fd5b505050506040513d60208110156200106857600080fd5b8101908080519060200190929190505050600160006101000a81548173ffffffffffffffffffffffffffffffffffffffff021916908373ffffffffffffffffffffffffffffffffffffffff1602179055505b6000600160009054906101000a900473ffffffffffffffffffffffffffffffffffffffff1673ffffffffffffffffffffffffffffffffffffffff16632ef3accc86856040518363ffffffff1660e01b81526004018080602001838152602001828103825284818151815260200191508051906020019080838360005b838110156200115357808201518184015260208101905062001136565b50505050905090810190601f168015620011815780820380516001836020036101000a031916815260200191505b509350505050602060405180830381600087803b158015620011a257600080fd5b505af1158015620011b7573d6000803e3d6000fd5b505050506040513d6020811015620011ce57600080fd5b81019080805190602001909291905050509050823a02670de0b6b3a76400000181111562001203576000801b915050620013ba565b606062001216856200199060201b60201c565b9050600160009054906101000a900473ffffffffffffffffffffffffffffffffffffffff1673ffffffffffffffffffffffffffffffffffffffff1663c55c1cb68360008985896040518663ffffffff1660e01b8152600401808581526020018060200180602001848152602001838103835286818151815260200191508051906020019080838360005b83811015620012bd578082015181840152602081019050620012a0565b50505050905090810190601f168015620012eb5780820380516001836020036101000a031916815260200191505b50838103825285818151815260200191508051906020019080838360005b838110156200132657808201518184015260208101905062001309565b50505050905090810190601f168015620013545780820380516001836020036101000a031916815260200191505b5096505050505050506020604051808303818588803b1580156200137757600080fd5b505af11580156200138c573d6000803e3d6000fd5b50505050506040513d6020811015620013a457600080fd5b8101908080519060200190929190505050925050505b9392505050565b600080620013e9731d3b2638a7cc9f2cb3d298a3da7a90b67e5506ed62000e0560201b60201c565b11156200149557731d3b2638a7cc9f2cb3d298a3da7a90b67e5506ed600260006101000a81548173ffffffffffffffffffffffffffffffffffffffff021916908373ffffffffffffffffffffffffffffffffffffffff1602179055506200148b6040518060400160405280600b81526020017f6574685f6d61696e6e657400000000000000000000000000000000000000000081525062001a4b60201b60201c565b600190506200198d565b6000620014bc73c03a2615d5efaf5f49f60b7bb6583eaec212fdf162000e0560201b60201c565b1115620015685773c03a2615d5efaf5f49f60b7bb6583eaec212fdf1600260006101000a81548173ffffffffffffffffffffffffffffffffffffffff021916908373ffffffffffffffffffffffffffffffffffffffff1602179055506200155e6040518060400160405280600c81526020017f6574685f726f707374656e33000000000000000000000000000000000000000081525062001a4b60201b60201c565b600190506200198d565b60006200158f73b7a07bcf2ba2f2703b24c0691b5278999c59ac7e62000e0560201b60201c565b11156200163b5773b7a07bcf2ba2f2703b24c0691b5278999c59ac7e600260006101000a81548173ffffffffffffffffffffffffffffffffffffffff021916908373ffffffffffffffffffffffffffffffffffffffff160217905550620016316040518060400160405280600981526020017f6574685f6b6f76616e000000000000000000000000000000000000000000000081525062001a4b60201b60201c565b600190506200198d565b60006200166273146500cfd35b22e4a392fe0adc06de1a1368ed4862000e0560201b60201c565b11156200170e5773146500cfd35b22e4a392fe0adc06de1a1368ed48600260006101000a81548173ffffffffffffffffffffffffffffffffffffffff021916908373ffffffffffffffffffffffffffffffffffffffff160217905550620017046040518060400160405280600b81526020017f6574685f72696e6b65627900000000000000000000000000000000000000000081525062001a4b60201b60201c565b600190506200198d565b60006200173573a2998efd205fb9d4b4963afb70778d6354ad3a4162000e0560201b60201c565b1115620017e15773a2998efd205fb9d4b4963afb70778d6354ad3a41600260006101000a81548173ffffffffffffffffffffffffffffffffffffffff021916908373ffffffffffffffffffffffffffffffffffffffff160217905550620017d76040518060400160405280600a81526020017f6574685f676f65726c690000000000000000000000000000000000000000000081525062001a4b60201b60201c565b600190506200198d565b600062001808736f485c8bf6fc43ea212e93bbf8ce046c7f1cb47562000e0560201b60201c565b11156200186e57736f485c8bf6fc43ea212e93bbf8ce046c7f1cb475600260006101000a81548173ffffffffffffffffffffffffffffffffffffffff021916908373ffffffffffffffffffffffffffffffffffffffff160217905550600190506200198d565b6000620018957320e12a1f859b3feae5fb2a0a32c18f5a65555bbf62000e0560201b60201c565b1115620018fb577320e12a1f859b3feae5fb2a0a32c18f5a65555bbf600260006101000a81548173ffffffffffffffffffffffffffffffffffffffff021916908373ffffffffffffffffffffffffffffffffffffffff160217905550600190506200198d565b6000620019227351efaf4c8b3c9afbd5ab9f4bbc82784ab6ef8faa62000e0560201b60201c565b111562001988577351efaf4c8b3c9afbd5ab9f4bbc82784ab6ef8faa600260006101000a81548173ffffffffffffffffffffffffffffffffffffffff021916908373ffffffffffffffffffffffffffffffffffffffff160217905550600190506200198d565b600090505b90565b6060620019a262001a6760201b60201c565b620019ac62001ecc565b620019c58161040062001a7360201b6200267f1760201c565b620019db8162001ac060201b620026c91760201c565b60008090505b835181101562001a275762001a19848281518110620019fc57fe5b60200260200101518362001ad660201b620026d71790919060201c565b8080600101915050620019e1565b5062001a3e8162001b0a60201b620026fc1760201c565b8060000151915050919050565b806003908051906020019062001a6392919062001ee6565b5050565b60405180590338823950565b600081905060006020828162001a8557fe5b061462001aa0576020818162001a9757fe5b06602003810190505b808360200181815250506040518084526000815281810160405250505050565b62001ad381600462001b2060201b60201c565b50565b62001aeb826002835162001b4860201b60201c565b62001b05818362001cd060201b6200286b1790919060201c565b505050565b62001b1d81600762001b2060201b60201c565b50565b62001b44601f60058360ff16901b178362001d9060201b620029161790919060201c565b5050565b6017811162001b7d5762001b778160058460ff16901b60ff16178462001d9060201b620029161790919060201c565b62001ccb565b60ff811162001bce5762001baa601860058460ff16901b178462001d9060201b620029161790919060201c565b62001bc78160018562001dd960201b62002956179092919060201c565b5062001cca565b61ffff811162001c205762001bfc601960058460ff16901b178462001d9060201b620029161790919060201c565b62001c198160028562001dd960201b62002956179092919060201c565b5062001cc9565b63ffffffff811162001c745762001c50601a60058460ff16901b178462001d9060201b620029161790919060201c565b62001c6d8160048562001dd960201b62002956179092919060201c565b5062001cc8565b67ffffffffffffffff811162001cc75762001ca8601b60058460ff16901b178462001d9060201b620029161790919060201c565b62001cc58160088562001dd960201b62002956179092919060201c565b505b5b5b5b5b505050565b62001cda62001ecc565b8260200151836000015151835101111562001d1b5762001d1a83600262001d0d8660200151865162001e5360201b60201c565b0262001e7160201b60201c565b5b60008060008451905085518051602081830101945086518101825260208701935050505b6020811062001d64578151835260208301925060208201915060208103905062001d3f565b60006001826020036101000a039050801983511681855116818117865250508694505050505092915050565b8160200151600183600001515101111562001dbf5762001dbe82600284602001510262001e7160201b60201c565b5b815180516020818301018381536001820183525050505050565b62001de362001ecc565b83602001518460000151518301111562001e225762001e2184600262001e1487602001518662001e5360201b60201c565b0262001e7160201b60201c565b5b60006001836101000a0390508451805184818301018684198251161781528582018352505050849150509392505050565b60008183111562001e675782905062001e6b565b8190505b92915050565b60608260000151905062001e8c838362001a7360201b60201c565b62001e9e838262001cd060201b60201c565b50505050565b60405180608001604052806004905b606081526020019060019003908162001eb35790505090565b604051806040016040528060608152602001600081525090565b828054600181600116156101000203166002900490600052602060002090601f016020900481019282601f1062001f2957805160ff191683800117855562001f5a565b8280016001018555821562001f5a579182015b8281111562001f5957825182559160200191906001019062001f3c565b5b50905062001f69919062001f6d565b5090565b62001f9291905b8082111562001f8e57600081600090555060010162001f74565b5090565b90565b612b4d8062001fa56000396000f3fe6080604052600436106100e85760003560e01c80637c0415ca1161008a578063b69ef8a811610059578063b69ef8a814610592578063bd097e21146105bd578063d0e30db0146105db578063dc34b0aa146105e5576100e8565b80637c0415ca14610484578063853828b6146105065780638da5cb5b14610531578063a2e6204514610588576100e8565b806338bbfa50116100c657806338bbfa50146102535780635ec01e4d146103bc57806376f358af146103eb5780637b8ff38f14610454576100e8565b806312065fe0146100ed5780631e6d56731461011857806327dc297e14610181575b600080fd5b3480156100f957600080fd5b50610102610610565b6040518082815260200191505060405180910390f35b34801561012457600080fd5b506101676004803603602081101561013b57600080fd5b81019080803573ffffffffffffffffffffffffffffffffffffffff16906020019092919050505061061a565b604051808215151515815260200191505060405180910390f35b34801561018d57600080fd5b50610251600480360360408110156101a457600080fd5b8101908080359060200190929190803590602001906401000000008111156101cb57600080fd5b8201836020820111156101dd57600080fd5b803590602001918460018302840111640100000000831117156101ff57600080fd5b91908080601f016020809104026020016040519081016040528093929190818152602001838380828437600081840152601f19601f820116905080830192505050505050509192919290505050610670565b005b34801561025f57600080fd5b506103ba6004803603606081101561027657600080fd5b81019080803590602001909291908035906020019064010000000081111561029d57600080fd5b8201836020820111156102af57600080fd5b803590602001918460018302840111640100000000831117156102d157600080fd5b91908080601f016020809104026020016040519081016040528093929190818152602001838380828437600081840152601f19601f8201169050808301925050505050505091929192908035906020019064010000000081111561033457600080fd5b82018360208201111561034657600080fd5b8035906020019184600183028401116401000000008311171561036857600080fd5b91908080601f016020809104026020016040519081016040528093929190818152602001838380828437600081840152601f19601f8201169050808301925050505050505091929192905050506106b3565b005b3480156103c857600080fd5b506103d16107b9565b604051808215151515815260200191505060405180910390f35b3480156103f757600080fd5b5061043a6004803603602081101561040e57600080fd5b81019080803573ffffffffffffffffffffffffffffffffffffffff1690602001909291905050506107ce565b604051808215151515815260200191505060405180910390f35b6104826004803603602081101561046a57600080fd5b810190808035151590602001909291905050506107ee565b005b34801561049057600080fd5b506104bd600480360360208110156104a757600080fd5b8101908080359060200190929190505050610920565b604051808373ffffffffffffffffffffffffffffffffffffffff1673ffffffffffffffffffffffffffffffffffffffff1681526020018281526020019250505060405180910390f35b34801561051257600080fd5b5061051b610964565b6040518082815260200191505060405180910390f35b34801561053d57600080fd5b50610546610a1c565b604051808273ffffffffffffffffffffffffffffffffffffffff1673ffffffffffffffffffffffffffffffffffffffff16815260200191505060405180910390f35b610590610a41565b005b34801561059e57600080fd5b506105a7610aae565b6040518082815260200191505060405180910390f35b6105c5610ab4565b6040518082815260200191505060405180910390f35b6105e3610b23565b005b3480156105f157600080fd5b506105fa610b35565b6040518082815260200191505060405180910390f35b6000600954905090565b6000600760008373ffffffffffffffffffffffffffffffffffffffff1673ffffffffffffffffffffffffffffffffffffffff16815260200190815260200160002060009054906101000a900460ff169050919050565b6106af828260006040519080825280601f01601f1916602001820160405280156106a95781602001600182028038833980820191505090505b506106b3565b5050565b6106bb610b3b565b73ffffffffffffffffffffffffffffffffffffffff163373ffffffffffffffffffffffffffffffffffffffff16146106f257600080fd5b60006002836040516020018082805190602001908083835b6020831061072d578051825260208201915060208101905060208303925061070a565b6001836020036101000a0380198251168184511680821785525050505050509050019150506040516020818303038152906040528051906020012060001c8161077257fe5b069050806006819055507fc13d60fe9dffdb6908d2d446cd18134373a51db0738ee04f296eeb9128121cbc816040518082815260200191505060405180910390a150505050565b600080600242816107c657fe5b061415905090565b60076020528060005260406000206000915054906101000a900460ff1681565b60006107f86107b9565b905081151581151514156108b85734600954036009819055503373ffffffffffffffffffffffffffffffffffffffff166108fc600234029081150290604051600060405180830381858888f1935050505015801561085a573d6000803e3d6000fd5b506001600760003373ffffffffffffffffffffffffffffffffffffffff1673ffffffffffffffffffffffffffffffffffffffff16815260200190815260200160002060006101000a81548160ff02191690831515021790555061091c565b34600954016009819055506000600760003373ffffffffffffffffffffffffffffffffffffffff1673ffffffffffffffffffffffffffffffffffffffff16815260200190815260200160002060006101000a81548160ff0219169083151502179055505b5050565b60086020528060005260406000206000915090508060000160009054906101000a900473ffffffffffffffffffffffffffffffffffffffff16908060010154905082565b60008060009054906101000a900473ffffffffffffffffffffffffffffffffffffffff1673ffffffffffffffffffffffffffffffffffffffff163373ffffffffffffffffffffffffffffffffffffffff16146109bf57600080fd5b6000600954905060006009819055503373ffffffffffffffffffffffffffffffffffffffff166108fc829081150290604051600060405180830381858888f19350505050158015610a14573d6000803e3d6000fd5b508091505090565b6000809054906101000a900473ffffffffffffffffffffffffffffffffffffffff1681565b6000809050600062030d4090506000610a5c83600184610e5b565b90507fc4dc360d0a9c0677a3379ae0a3d81e887f761e65fdf3d7e00859d1bcd3c47389604051808060200182810382526036815260200180612ae36036913960400191505060405180910390a1505050565b60095481565b60008060009054906101000a900473ffffffffffffffffffffffffffffffffffffffff1673ffffffffffffffffffffffffffffffffffffffff163373ffffffffffffffffffffffffffffffffffffffff1614610b0f57600080fd5b6000341415610b1d57600080fd5b34905090565b34600960008282540192505081905550565b60065481565b60008073ffffffffffffffffffffffffffffffffffffffff16600260009054906101000a900473ffffffffffffffffffffffffffffffffffffffff1673ffffffffffffffffffffffffffffffffffffffff161480610bc357506000610bc1600260009054906101000a900473ffffffffffffffffffffffffffffffffffffffff166113f6565b145b15610bd457610bd26000611401565b505b600260009054906101000a900473ffffffffffffffffffffffffffffffffffffffff1673ffffffffffffffffffffffffffffffffffffffff166338cc48316040518163ffffffff1660e01b8152600401602060405180830381600087803b158015610c3e57600080fd5b505af1158015610c52573d6000803e3d6000fd5b505050506040513d6020811015610c6857600080fd5b810190808051906020019092919050505073ffffffffffffffffffffffffffffffffffffffff16600160009054906101000a900473ffffffffffffffffffffffffffffffffffffffff1673ffffffffffffffffffffffffffffffffffffffff1614610db357600260009054906101000a900473ffffffffffffffffffffffffffffffffffffffff1673ffffffffffffffffffffffffffffffffffffffff166338cc48316040518163ffffffff1660e01b8152600401602060405180830381600087803b158015610d3757600080fd5b505af1158015610d4b573d6000803e3d6000fd5b505050506040513d6020811015610d6157600080fd5b8101908080519060200190929190505050600160006101000a81548173ffffffffffffffffffffffffffffffffffffffff021916908373ffffffffffffffffffffffffffffffffffffffff1602179055505b600160009054906101000a900473ffffffffffffffffffffffffffffffffffffffff1673ffffffffffffffffffffffffffffffffffffffff1663c281d19e6040518163ffffffff1660e01b815260040160206040518083038186803b158015610e1b57600080fd5b505afa158015610e2f573d6000803e3d6000fd5b505050506040513d6020811015610e4557600080fd5b8101908080519060200190929190505050905090565b60008083118015610e6d575060208311155b610e7657600080fd5b600a84029350606060016040519080825280601f01601f191660200182016040528015610eb25781602001600182028038833980820191505090505b5090508360f81b81600081518110610ec657fe5b60200101907effffffffffffffffffffffffffffffffffffffffffffffffffffffffffffff1916908160001a905350606060206040519080825280601f01601f191660200182016040528015610f2b5781602001600182028038833980820191505090505b509050606060206040519080825280601f01601f191660200182016040528015610f645781602001600182028038833980820191505090505b5090506000610f71611412565b905060208352424118600143034018602084015260208252806020830152606060206040519080825280601f01601f191660200182016040528015610fc55781602001600182028038833980820191505090505b509050886020820152606060086040519080825280601f01601f1916602001820160405280156110045781602001600182028038833980820191505090505b5090506110178260186008846000611732565b506110206129fc565b604051806080016040528087815260200188815260200186815260200184815250905060006110856040518060400160405280600681526020017f72616e646f6d0000000000000000000000000000000000000000000000000000815250838c611791565b9050606060086040519080825280601f01601f1916602001820160405280156110bd5781602001600182028038833980820191505090505b50905060208401517f0100000000000000000000000000000000000000000000000000000000000000810460278301537e01000000000000000000000000000000000000000000000000000000000000810460268301537d010000000000000000000000000000000000000000000000000000000000810460258301537c0100000000000000000000000000000000000000000000000000000000810460248301537b01000000000000000000000000000000000000000000000000000000810460238301537a0100000000000000000000000000000000000000000000000000008104602283015379010000000000000000000000000000000000000000000000000081046021830153780100000000000000000000000000000000000000000000000081046020830153506113e38282856001600481106111fc57fe5b602002015160028760006004811061121057fe5b60200201516040518082805190602001908083835b602083106112485780518252602082019150602081019050602083039250611225565b6001836020036101000a038019825116818451168082178552505050505050905001915050602060405180830381855afa15801561128a573d6000803e3d6000fd5b5050506040513d602081101561129f57600080fd5b8101908080519060200190929190505050876002600481106112bd57fe5b60200201516040516020018085805190602001908083835b602083106112f857805182526020820191506020810190506020830392506112d5565b6001836020036101000a03801982511681845116808217855250505050505090500184805190602001908083835b602083106113495780518252602082019150602081019050602083039250611326565b6001836020036101000a03801982511681845116808217855250505050505090500183815260200182805190602001908083835b602083106113a0578051825260208201915060208101905060208303925061137d565b6001836020036101000a03801982511681845116808217855250505050505090500194505050505060405160208183030381529060405280519060200120611b00565b8199505050505050505050509392505050565b6000813b9050919050565b600061140b611b1c565b9050919050565b60008073ffffffffffffffffffffffffffffffffffffffff16600260009054906101000a900473ffffffffffffffffffffffffffffffffffffffff1673ffffffffffffffffffffffffffffffffffffffff16148061149a57506000611498600260009054906101000a900473ffffffffffffffffffffffffffffffffffffffff166113f6565b145b156114ab576114a96000611401565b505b600260009054906101000a900473ffffffffffffffffffffffffffffffffffffffff1673ffffffffffffffffffffffffffffffffffffffff166338cc48316040518163ffffffff1660e01b8152600401602060405180830381600087803b15801561151557600080fd5b505af1158015611529573d6000803e3d6000fd5b505050506040513d602081101561153f57600080fd5b810190808051906020019092919050505073ffffffffffffffffffffffffffffffffffffffff16600160009054906101000a900473ffffffffffffffffffffffffffffffffffffffff1673ffffffffffffffffffffffffffffffffffffffff161461168a57600260009054906101000a900473ffffffffffffffffffffffffffffffffffffffff1673ffffffffffffffffffffffffffffffffffffffff166338cc48316040518163ffffffff1660e01b8152600401602060405180830381600087803b15801561160e57600080fd5b505af1158015611622573d6000803e3d6000fd5b505050506040513d602081101561163857600080fd5b8101908080519060200190929190505050600160006101000a81548173ffffffffffffffffffffffffffffffffffffffff021916908373ffffffffffffffffffffffffffffffffffffffff1602179055505b600160009054906101000a900473ffffffffffffffffffffffffffffffffffffffff1673ffffffffffffffffffffffffffffffffffffffff1663abaa5f3e6040518163ffffffff1660e01b815260040160206040518083038186803b1580156116f257600080fd5b505afa158015611706573d6000803e3d6000fd5b505050506040513d602081101561171c57600080fd5b8101908080519060200190929190505050905090565b606060008285019050808451101561174957600080fd5b600086602001905060008460200190505b868860200101821015611782578189015180828801525060208201915060208101905061175a565b85935050505095945050505050565b60008073ffffffffffffffffffffffffffffffffffffffff16600260009054906101000a900473ffffffffffffffffffffffffffffffffffffffff1673ffffffffffffffffffffffffffffffffffffffff16148061181957506000611817600260009054906101000a900473ffffffffffffffffffffffffffffffffffffffff166113f6565b145b1561182a576118286000611401565b505b600260009054906101000a900473ffffffffffffffffffffffffffffffffffffffff1673ffffffffffffffffffffffffffffffffffffffff166338cc48316040518163ffffffff1660e01b8152600401602060405180830381600087803b15801561189457600080fd5b505af11580156118a8573d6000803e3d6000fd5b505050506040513d60208110156118be57600080fd5b810190808051906020019092919050505073ffffffffffffffffffffffffffffffffffffffff16600160009054906101000a900473ffffffffffffffffffffffffffffffffffffffff1673ffffffffffffffffffffffffffffffffffffffff1614611a0957600260009054906101000a900473ffffffffffffffffffffffffffffffffffffffff1673ffffffffffffffffffffffffffffffffffffffff166338cc48316040518163ffffffff1660e01b8152600401602060405180830381600087803b15801561198d57600080fd5b505af11580156119a1573d6000803e3d6000fd5b505050506040513d60208110156119b757600080fd5b8101908080519060200190929190505050600160006101000a81548173ffffffffffffffffffffffffffffffffffffffff021916908373ffffffffffffffffffffffffffffffffffffffff1602179055505b60606004604051908082528060200260200182016040528015611a4057816020015b6060815260200190600190039081611a2b5790505b50905083600060048110611a5057fe5b602002015181600081518110611a6257fe5b602002602001018190525083600160048110611a7a57fe5b602002015181600181518110611a8c57fe5b602002602001018190525083600260048110611aa457fe5b602002015181600281518110611ab657fe5b602002602001018190525083600360048110611ace57fe5b602002015181600381518110611ae057fe5b6020026020010181905250611af6858285612073565b9150509392505050565b8060046000848152602001908152602001600020819055505050565b600080611b3c731d3b2638a7cc9f2cb3d298a3da7a90b67e5506ed6113f6565b1115611bde57731d3b2638a7cc9f2cb3d298a3da7a90b67e5506ed600260006101000a81548173ffffffffffffffffffffffffffffffffffffffff021916908373ffffffffffffffffffffffffffffffffffffffff160217905550611bd56040518060400160405280600b81526020017f6574685f6d61696e6e65740000000000000000000000000000000000000000008152506125d9565b60019050612070565b6000611bfd73c03a2615d5efaf5f49f60b7bb6583eaec212fdf16113f6565b1115611c9f5773c03a2615d5efaf5f49f60b7bb6583eaec212fdf1600260006101000a81548173ffffffffffffffffffffffffffffffffffffffff021916908373ffffffffffffffffffffffffffffffffffffffff160217905550611c966040518060400160405280600c81526020017f6574685f726f707374656e3300000000000000000000000000000000000000008152506125d9565b60019050612070565b6000611cbe73b7a07bcf2ba2f2703b24c0691b5278999c59ac7e6113f6565b1115611d605773b7a07bcf2ba2f2703b24c0691b5278999c59ac7e600260006101000a81548173ffffffffffffffffffffffffffffffffffffffff021916908373ffffffffffffffffffffffffffffffffffffffff160217905550611d576040518060400160405280600981526020017f6574685f6b6f76616e00000000000000000000000000000000000000000000008152506125d9565b60019050612070565b6000611d7f73146500cfd35b22e4a392fe0adc06de1a1368ed486113f6565b1115611e215773146500cfd35b22e4a392fe0adc06de1a1368ed48600260006101000a81548173ffffffffffffffffffffffffffffffffffffffff021916908373ffffffffffffffffffffffffffffffffffffffff160217905550611e186040518060400160405280600b81526020017f6574685f72696e6b6562790000000000000000000000000000000000000000008152506125d9565b60019050612070565b6000611e4073a2998efd205fb9d4b4963afb70778d6354ad3a416113f6565b1115611ee25773a2998efd205fb9d4b4963afb70778d6354ad3a41600260006101000a81548173ffffffffffffffffffffffffffffffffffffffff021916908373ffffffffffffffffffffffffffffffffffffffff160217905550611ed96040518060400160405280600a81526020017f6574685f676f65726c69000000000000000000000000000000000000000000008152506125d9565b60019050612070565b6000611f01736f485c8bf6fc43ea212e93bbf8ce046c7f1cb4756113f6565b1115611f6557736f485c8bf6fc43ea212e93bbf8ce046c7f1cb475600260006101000a81548173ffffffffffffffffffffffffffffffffffffffff021916908373ffffffffffffffffffffffffffffffffffffffff16021790555060019050612070565b6000611f847320e12a1f859b3feae5fb2a0a32c18f5a65555bbf6113f6565b1115611fe8577320e12a1f859b3feae5fb2a0a32c18f5a65555bbf600260006101000a81548173ffffffffffffffffffffffffffffffffffffffff021916908373ffffffffffffffffffffffffffffffffffffffff16021790555060019050612070565b60006120077351efaf4c8b3c9afbd5ab9f4bbc82784ab6ef8faa6113f6565b111561206b577351efaf4c8b3c9afbd5ab9f4bbc82784ab6ef8faa600260006101000a81548173ffffffffffffffffffffffffffffffffffffffff021916908373ffffffffffffffffffffffffffffffffffffffff16021790555060019050612070565b600090505b90565b60008073ffffffffffffffffffffffffffffffffffffffff16600260009054906101000a900473ffffffffffffffffffffffffffffffffffffffff1673ffffffffffffffffffffffffffffffffffffffff1614806120fb575060006120f9600260009054906101000a900473ffffffffffffffffffffffffffffffffffffffff166113f6565b145b1561210c5761210a6000611401565b505b600260009054906101000a900473ffffffffffffffffffffffffffffffffffffffff1673ffffffffffffffffffffffffffffffffffffffff166338cc48316040518163ffffffff1660e01b8152600401602060405180830381600087803b15801561217657600080fd5b505af115801561218a573d6000803e3d6000fd5b505050506040513d60208110156121a057600080fd5b810190808051906020019092919050505073ffffffffffffffffffffffffffffffffffffffff16600160009054906101000a900473ffffffffffffffffffffffffffffffffffffffff1673ffffffffffffffffffffffffffffffffffffffff16146122eb57600260009054906101000a900473ffffffffffffffffffffffffffffffffffffffff1673ffffffffffffffffffffffffffffffffffffffff166338cc48316040518163ffffffff1660e01b8152600401602060405180830381600087803b15801561226f57600080fd5b505af1158015612283573d6000803e3d6000fd5b505050506040513d602081101561229957600080fd5b8101908080519060200190929190505050600160006101000a81548173ffffffffffffffffffffffffffffffffffffffff021916908373ffffffffffffffffffffffffffffffffffffffff1602179055505b6000600160009054906101000a900473ffffffffffffffffffffffffffffffffffffffff1673ffffffffffffffffffffffffffffffffffffffff16632ef3accc86856040518363ffffffff1660e01b81526004018080602001838152602001828103825284818151815260200191508051906020019080838360005b83811015612382578082015181840152602081019050612367565b50505050905090810190601f1680156123af5780820380516001836020036101000a031916815260200191505b509350505050602060405180830381600087803b1580156123cf57600080fd5b505af11580156123e3573d6000803e3d6000fd5b505050506040513d60208110156123f957600080fd5b81019080805190602001909291905050509050823a02670de0b6b3a76400000181111561242c576000801b9150506125d2565b6060612437856125f3565b9050600160009054906101000a900473ffffffffffffffffffffffffffffffffffffffff1673ffffffffffffffffffffffffffffffffffffffff1663c55c1cb68360008985896040518663ffffffff1660e01b8152600401808581526020018060200180602001848152602001838103835286818151815260200191508051906020019080838360005b838110156124dc5780820151818401526020810190506124c1565b50505050905090810190601f1680156125095780820380516001836020036101000a031916815260200191505b50838103825285818151815260200191508051906020019080838360005b83811015612542578082015181840152602081019050612527565b50505050905090810190601f16801561256f5780820380516001836020036101000a031916815260200191505b5096505050505050506020604051808303818588803b15801561259157600080fd5b505af11580156125a5573d6000803e3d6000fd5b50505050506040513d60208110156125bc57600080fd5b8101908080519060200190929190505050925050505b9392505050565b80600390805190602001906125ef929190612a23565b5050565b60606125fd612673565b612605612aa3565b6126118161040061267f565b61261a816126c9565b60008090505b835181101561265c5761264f84828151811061263857fe5b6020026020010151836126d790919063ffffffff16565b8080600101915050612620565b50612666816126fc565b8060000151915050919050565b60405180590338823950565b600081905060006020828161269057fe5b06146126a957602081816126a057fe5b06602003810190505b808360200181815250506040518084526000815281810160405250505050565b6126d481600461270a565b50565b6126e4826002835161272b565b6126f7818361286b90919063ffffffff16565b505050565b61270781600761270a565b50565b612727601f60058360ff16901b178361291690919063ffffffff16565b5050565b60178111612757576127528160058460ff16901b60ff16178461291690919063ffffffff16565b612866565b60ff81116127985761277c601860058460ff16901b178461291690919063ffffffff16565b612792816001856129569092919063ffffffff16565b50612865565b61ffff81116127da576127be601960058460ff16901b178461291690919063ffffffff16565b6127d4816002856129569092919063ffffffff16565b50612864565b63ffffffff811161281e57612802601a60058460ff16901b178461291690919063ffffffff16565b612818816004856129569092919063ffffffff16565b50612863565b67ffffffffffffffff81116128625761284a601b60058460ff16901b178461291690919063ffffffff16565b612860816008856129569092919063ffffffff16565b505b5b5b5b5b505050565b612873612aa3565b826020015183600001515183510111156128a3576128a283600261289c866020015186516129bd565b026129d9565b5b60008060008451905085518051602081830101945086518101825260208701935050505b602081106128ea57815183526020830192506020820191506020810390506128c7565b60006001826020036101000a039050801983511681855116818117865250508694505050505092915050565b8160200151600183600001515101111561293c5761293b8260028460200151026129d9565b5b815180516020818301018381536001820183525050505050565b61295e612aa3565b83602001518460000151518301111561298c5761298b8460026129858760200151866129bd565b026129d9565b5b60006001836101000a0390508451805184818301018684198251161781528582018352505050849150509392505050565b6000818311156129cf578290506129d3565b8190505b92915050565b6060826000015190506129ec838361267f565b6129f6838261286b565b50505050565b60405180608001604052806004905b6060815260200190600190039081612a0b5790505090565b828054600181600116156101000203166002900490600052602060002090601f016020900481019282601f10612a6457805160ff1916838001178555612a92565b82800160010185558215612a92579182015b82811115612a91578251825591602001919060010190612a76565b5b509050612a9f9190612abd565b5090565b604051806040016040528060608152602001600081525090565b612adf91905b80821115612adb576000816000905550600101612ac3565b5090565b9056fe50726f7661626c65207175657279207761732073656e742c207374616e64696e6720627920666f722074686520616e737765722e2e2ea265627a7a72315820701b65f9af096c0ccf3bbb2add819bbac9412860d742ad8bc971b8dc3b81c64f64736f6c634300050c003250726f7661626c65207175657279207761732073656e742c207374616e64696e6720627920666f722074686520616e737765722e2e2e",
  "source": "import \"./Ownable.sol\";\r\nimport \"./provableAPI.sol\";\r\npragma solidity 0.5.12;\r\n\r\ncontract Coinflip is Ownable, usingProvable {\r\n    uint256 public latestNumber;\r\n    uint256 constant NUM_RANDOM_BYTES_REQUESTED = 1;\r\n\r\n    event LogNewProvableQuery(string description);\r\n    event generatedRandomNumber(uint256 randomNumber);\r\n\r\n    constructor() public {\r\n        update();\r\n    }\r\n\r\n    function __callback(\r\n        bytes32 _queryId,\r\n        string memory _result,\r\n        bytes memory _proof\r\n    ) public {\r\n        require(msg.sender == provable_cbAddress());\r\n        uint256 randomNumber = uint256(keccak256(abi.encodePacked(_result))) %\r\n            2;\r\n        latestNumber = randomNumber;\r\n        emit generatedRandomNumber(randomNumber);\r\n    }\r\n\r\n    function update() public payable {\r\n        uint256 QUERY_EXECUTION_DELAY = 0;\r\n        uint256 GAS_FOR_CALLBACK = 200000;\r\n        bytes32 queryId =\r\n        provable_newRandomDSQuery(\r\n            QUERY_EXECUTION_DELAY,\r\n            NUM_RANDOM_BYTES_REQUESTED,\r\n            GAS_FOR_CALLBACK\r\n        );\r\n        emit LogNewProvableQuery(\r\n            \"Provable query was sent, standing by for the answer...\"\r\n        );\r\n    }\r\n\r\n    struct Bet {\r\n        address player;\r\n        uint256 betValue;\r\n    }\r\n\r\n    mapping(address => bool) public bettings;\r\n    mapping(uint256 => Bet) public waiting;\r\n    uint256 public balance;\r\n\r\n    function random() public view returns (bool) {\r\n        return (now % 2 != 0);\r\n    }\r\n\r\n    function flipCoin(bool bet) public payable {\r\n        bool headsOrTails = random();\r\n        if (headsOrTails == bet) {\r\n            balance = balance - (msg.value);\r\n            msg.sender.transfer((msg.value * 2));\r\n            bettings[msg.sender] = true;\r\n        } else {\r\n            balance = balance + msg.value;\r\n            bettings[msg.sender] = false;\r\n        }\r\n    }\r\n\r\n    function deposit() public payable {\r\n        balance += msg.value;\r\n    }\r\n\r\n    function getLastFlip(address player) public view returns (bool) {\r\n        return bettings[player];\r\n    }\r\n\r\n    function getBalance() public view returns (uint256) {\r\n        return balance;\r\n    }\r\n\r\n    function withdrawAll() public onlyOwner returns (uint256) {\r\n        uint256 toTransfer = balance;\r\n        balance = 0;\r\n        msg.sender.transfer(toTransfer);\r\n        return toTransfer;\r\n    }\r\n\r\n    function fundContract() public payable onlyOwner returns (uint256) {\r\n        require(msg.value != 0);\r\n        //emit funded(msg.sender, msg.value);\r\n        return msg.value;\r\n    }\r\n}\r\n",
  "sourcePath": "C:/Users/LukeO/Desktop/Ethereum/Coinflip v2/contracts/Coinflip.sol",
  "compiler": {
    "name": "solc",
    "version": "0.5.12+commit.7709ece9.Emscripten.clang"
  },
  "schemaVersion": "3.0.16",
  "updatedAt": "2020-10-11T00:19:05.840Z",
  "devdoc": {
    "methods": {
      "__callback(bytes32,string)": {
        "details": "The following `__callback` functions are just placeholders ideally     meant to be defined in child contract when proofs are used.     The function bodies simply silence compiler warnings."
      }
    }
  },
  "userdoc": {
    "methods": {}
  }
}