{
  "contractName": "Coinflip",
  "abi": [
    {
      "anonymous": false,
      "inputs": [
        {
          "indexed": false,
          "internalType": "string",
          "name": "description",
          "type": "string"
        }
      ],
      "name": "LogNewProvableQuery",
      "type": "event"
    },
    {
      "anonymous": false,
      "inputs": [
        {
          "indexed": false,
          "internalType": "uint256",
          "name": "randomNumber",
          "type": "uint256"
        }
      ],
      "name": "generatedRandomNumber",
      "type": "event"
    },
    {
      "anonymous": false,
      "inputs": [
        {
          "indexed": false,
          "internalType": "address",
          "name": "player",
          "type": "address"
        },
        {
          "indexed": false,
          "internalType": "bool",
          "name": "won",
          "type": "bool"
        },
        {
          "indexed": false,
          "internalType": "uint256",
          "name": "playerBalance",
          "type": "uint256"
        }
      ],
      "name": "resultOutcome",
      "type": "event"
    },
    {
      "constant": true,
      "inputs": [],
      "name": "balance",
      "outputs": [
        {
          "internalType": "uint256",
          "name": "",
          "type": "uint256"
        }
      ],
      "payable": false,
      "stateMutability": "view",
      "type": "function"
    },
    {
      "constant": true,
      "inputs": [
        {
          "internalType": "address",
          "name": "",
          "type": "address"
        }
      ],
      "name": "bettings",
      "outputs": [
        {
          "internalType": "bool",
          "name": "",
          "type": "bool"
        }
      ],
      "payable": false,
      "stateMutability": "view",
      "type": "function"
    },
    {
      "constant": true,
      "inputs": [],
      "name": "latestNumber",
      "outputs": [
        {
          "internalType": "uint256",
          "name": "",
          "type": "uint256"
        }
      ],
      "payable": false,
      "stateMutability": "view",
      "type": "function"
    },
    {
      "constant": true,
      "inputs": [],
      "name": "owner",
      "outputs": [
        {
          "internalType": "address",
          "name": "",
          "type": "address"
        }
      ],
      "payable": false,
      "stateMutability": "view",
      "type": "function"
    },
    {
      "constant": true,
      "inputs": [
        {
          "internalType": "bytes32",
          "name": "",
          "type": "bytes32"
        }
      ],
      "name": "waiting",
      "outputs": [
        {
          "internalType": "address",
          "name": "player",
          "type": "address"
        },
        {
          "internalType": "uint256",
          "name": "betValue",
          "type": "uint256"
        },
        {
          "internalType": "bool",
          "name": "heads",
          "type": "bool"
        },
        {
          "internalType": "bool",
          "name": "won",
          "type": "bool"
        }
      ],
      "payable": false,
      "stateMutability": "view",
      "type": "function"
    },
    {
      "constant": false,
      "inputs": [
        {
          "internalType": "bool",
          "name": "bet",
          "type": "bool"
        }
      ],
      "name": "flipCoin",
      "outputs": [],
      "payable": true,
      "stateMutability": "payable",
      "type": "function"
    },
    {
      "constant": false,
      "inputs": [
        {
          "internalType": "bytes32",
          "name": "_myid",
          "type": "bytes32"
        },
        {
          "internalType": "string",
          "name": "_result",
          "type": "string"
        }
      ],
      "name": "__callback",
      "outputs": [],
      "payable": false,
      "stateMutability": "nonpayable",
      "type": "function"
    },
    {
      "constant": false,
      "inputs": [
        {
          "internalType": "bytes32",
          "name": "_queryId",
          "type": "bytes32"
        },
        {
          "internalType": "string",
          "name": "_result",
          "type": "string"
        },
        {
          "internalType": "bytes",
          "name": "_proof",
          "type": "bytes"
        }
      ],
      "name": "__callback",
      "outputs": [],
      "payable": false,
      "stateMutability": "nonpayable",
      "type": "function"
    },
    {
      "constant": false,
      "inputs": [],
      "name": "deposit",
      "outputs": [],
      "payable": true,
      "stateMutability": "payable",
      "type": "function"
    },
    {
      "constant": true,
      "inputs": [
        {
          "internalType": "address",
          "name": "player",
          "type": "address"
        }
      ],
      "name": "getLastFlip",
      "outputs": [
        {
          "internalType": "bool",
          "name": "",
          "type": "bool"
        }
      ],
      "payable": false,
      "stateMutability": "view",
      "type": "function"
    },
    {
      "constant": true,
      "inputs": [],
      "name": "getBalance",
      "outputs": [
        {
          "internalType": "uint256",
          "name": "",
          "type": "uint256"
        }
      ],
      "payable": false,
      "stateMutability": "view",
      "type": "function"
    },
    {
      "constant": false,
      "inputs": [],
      "name": "withdrawAll",
      "outputs": [
        {
          "internalType": "uint256",
          "name": "",
          "type": "uint256"
        }
      ],
      "payable": false,
      "stateMutability": "nonpayable",
      "type": "function"
    }
  ],
  "bytecode": "0x6080604052336000806101000a81548173ffffffffffffffffffffffffffffffffffffffff021916908373ffffffffffffffffffffffffffffffffffffffff1602179055506130cc806100536000396000f3fe6080604052600436106100a75760003560e01c80637b8ff38f116100645780637b8ff38f1461047c578063853828b6146104ac5780638da5cb5b146104d7578063b69ef8a81461052e578063d0e30db014610559578063dc34b0aa14610563576100a7565b806312065fe0146100ac5780631e6d5673146100d757806327dc297e1461014057806338bbfa50146102125780633a831e071461037b57806376f358af14610413575b600080fd5b3480156100b857600080fd5b506100c161058e565b6040518082815260200191505060405180910390f35b3480156100e357600080fd5b50610126600480360360208110156100fa57600080fd5b81019080803573ffffffffffffffffffffffffffffffffffffffff169060200190929190505050610598565b604051808215151515815260200191505060405180910390f35b34801561014c57600080fd5b506102106004803603604081101561016357600080fd5b81019080803590602001909291908035906020019064010000000081111561018a57600080fd5b82018360208201111561019c57600080fd5b803590602001918460018302840111640100000000831117156101be57600080fd5b91908080601f016020809104026020016040519081016040528093929190818152602001838380828437600081840152601f19601f8201169050808301925050505050505091929192905050506105ee565b005b34801561021e57600080fd5b506103796004803603606081101561023557600080fd5b81019080803590602001909291908035906020019064010000000081111561025c57600080fd5b82018360208201111561026e57600080fd5b8035906020019184600183028401116401000000008311171561029057600080fd5b91908080601f016020809104026020016040519081016040528093929190818152602001838380828437600081840152601f19601f820116905080830192505050505050509192919290803590602001906401000000008111156102f357600080fd5b82018360208201111561030557600080fd5b8035906020019184600183028401116401000000008311171561032757600080fd5b91908080601f016020809104026020016040519081016040528093929190818152602001838380828437600081840152601f19601f820116905080830192505050505050509192919290505050610631565b005b34801561038757600080fd5b506103b46004803603602081101561039e57600080fd5b8101908080359060200190929190505050610a21565b604051808573ffffffffffffffffffffffffffffffffffffffff1673ffffffffffffffffffffffffffffffffffffffff168152602001848152602001831515151581526020018215151515815260200194505050505060405180910390f35b34801561041f57600080fd5b506104626004803603602081101561043657600080fd5b81019080803573ffffffffffffffffffffffffffffffffffffffff169060200190929190505050610a8b565b604051808215151515815260200191505060405180910390f35b6104aa6004803603602081101561049257600080fd5b81019080803515159060200190929190505050610aab565b005b3480156104b857600080fd5b506104c1610c1f565b6040518082815260200191505060405180910390f35b3480156104e357600080fd5b506104ec610cd7565b604051808273ffffffffffffffffffffffffffffffffffffffff1673ffffffffffffffffffffffffffffffffffffffff16815260200191505060405180910390f35b34801561053a57600080fd5b50610543610cfc565b6040518082815260200191505060405180910390f35b610561610d02565b005b34801561056f57600080fd5b50610578610d14565b6040518082815260200191505060405180910390f35b6000600a54905090565b6000600760008373ffffffffffffffffffffffffffffffffffffffff1673ffffffffffffffffffffffffffffffffffffffff16815260200190815260200160002060009054906101000a900460ff169050919050565b61062d828260006040519080825280601f01601f1916602001820160405280156106275781602001600182028038833980820191505090505b50610631565b5050565b610639610d1a565b73ffffffffffffffffffffffffffffffffffffffff163373ffffffffffffffffffffffffffffffffffffffff161461067057600080fd5b6000806002846040516020018082805190602001908083835b602083106106ac5780518252602082019150602081019050602083039250610689565b6001836020036101000a0380198251168184511680821785525050505050509050019150506040516020818303038152906040528051906020012060001c816106f157fe5b06141590506008600085815260200190815260200160002060020160009054906101000a900460ff16905080156108135760016008600086815260200190815260200160002060020160016101000a81548160ff0219169083151502179055506008600085815260200190815260200160002060010154600a5403600a819055506008600085815260200190815260200160002060010154600202600960006008600088815260200190815260200160002060000160009054906101000a900473ffffffffffffffffffffffffffffffffffffffff1673ffffffffffffffffffffffffffffffffffffffff1673ffffffffffffffffffffffffffffffffffffffff16815260200190815260200160002060008282540192505081905550610869565b60006008600086815260200190815260200160002060020160016101000a81548160ff0219169083151502179055506008600085815260200190815260200160002060010154600a600082825401925050819055505b7fb06994c41e38decba2b0b5f15613ce3beb9bd60f7bd5c069eb362e66aa0dddbc6008600086815260200190815260200160002060000160009054906101000a900473ffffffffffffffffffffffffffffffffffffffff166008600087815260200190815260200160002060020160019054906101000a900460ff1660096000600860008a815260200190815260200160002060000160009054906101000a900473ffffffffffffffffffffffffffffffffffffffff1673ffffffffffffffffffffffffffffffffffffffff1673ffffffffffffffffffffffffffffffffffffffff16815260200190815260200160002054604051808473ffffffffffffffffffffffffffffffffffffffff1673ffffffffffffffffffffffffffffffffffffffff16815260200183151515158152602001828152602001935050505060405180910390a160086000858152602001908152602001600020600080820160006101000a81549073ffffffffffffffffffffffffffffffffffffffff021916905560018201600090556002820160006101000a81549060ff02191690556002820160016101000a81549060ff0219169055505050505050565b60086020528060005260406000206000915090508060000160009054906101000a900473ffffffffffffffffffffffffffffffffffffffff16908060010154908060020160009054906101000a900460ff16908060020160019054906101000a900460ff16905084565b60076020528060005260406000206000915054906101000a900460ff1681565b600a54341115610aba57600080fd5b610ac2612f6f565b81816040019015159081151581525050610b106040518060400160405280600681526020017f52414e444f4d000000000000000000000000000000000000000000000000000081525061103a565b340381602001818152505033816000019073ffffffffffffffffffffffffffffffffffffffff16908173ffffffffffffffffffffffffffffffffffffffff16815250506000809050600062030d4090506000610b6e836001846113ce565b9050836008600083815260200190815260200160002060008201518160000160006101000a81548173ffffffffffffffffffffffffffffffffffffffff021916908373ffffffffffffffffffffffffffffffffffffffff1602179055506020820151816001015560408201518160020160006101000a81548160ff02191690831515021790555060608201518160020160016101000a81548160ff0219169083151502179055509050505050505050565b60008060009054906101000a900473ffffffffffffffffffffffffffffffffffffffff1673ffffffffffffffffffffffffffffffffffffffff163373ffffffffffffffffffffffffffffffffffffffff1614610c7a57600080fd5b6000600a5490506000600a819055503373ffffffffffffffffffffffffffffffffffffffff166108fc829081150290604051600060405180830381858888f19350505050158015610ccf573d6000803e3d6000fd5b508091505090565b6000809054906101000a900473ffffffffffffffffffffffffffffffffffffffff1681565b600a5481565b34600a60008282540192505081905550565b60065481565b60008073ffffffffffffffffffffffffffffffffffffffff16600260009054906101000a900473ffffffffffffffffffffffffffffffffffffffff1673ffffffffffffffffffffffffffffffffffffffff161480610da257506000610da0600260009054906101000a900473ffffffffffffffffffffffffffffffffffffffff16611969565b145b15610db357610db16000611974565b505b600260009054906101000a900473ffffffffffffffffffffffffffffffffffffffff1673ffffffffffffffffffffffffffffffffffffffff166338cc48316040518163ffffffff1660e01b8152600401602060405180830381600087803b158015610e1d57600080fd5b505af1158015610e31573d6000803e3d6000fd5b505050506040513d6020811015610e4757600080fd5b810190808051906020019092919050505073ffffffffffffffffffffffffffffffffffffffff16600160009054906101000a900473ffffffffffffffffffffffffffffffffffffffff1673ffffffffffffffffffffffffffffffffffffffff1614610f9257600260009054906101000a900473ffffffffffffffffffffffffffffffffffffffff1673ffffffffffffffffffffffffffffffffffffffff166338cc48316040518163ffffffff1660e01b8152600401602060405180830381600087803b158015610f1657600080fd5b505af1158015610f2a573d6000803e3d6000fd5b505050506040513d6020811015610f4057600080fd5b8101908080519060200190929190505050600160006101000a81548173ffffffffffffffffffffffffffffffffffffffff021916908373ffffffffffffffffffffffffffffffffffffffff1602179055505b600160009054906101000a900473ffffffffffffffffffffffffffffffffffffffff1673ffffffffffffffffffffffffffffffffffffffff1663c281d19e6040518163ffffffff1660e01b815260040160206040518083038186803b158015610ffa57600080fd5b505afa15801561100e573d6000803e3d6000fd5b505050506040513d602081101561102457600080fd5b8101908080519060200190929190505050905090565b60008073ffffffffffffffffffffffffffffffffffffffff16600260009054906101000a900473ffffffffffffffffffffffffffffffffffffffff1673ffffffffffffffffffffffffffffffffffffffff1614806110c2575060006110c0600260009054906101000a900473ffffffffffffffffffffffffffffffffffffffff16611969565b145b156110d3576110d16000611974565b505b600260009054906101000a900473ffffffffffffffffffffffffffffffffffffffff1673ffffffffffffffffffffffffffffffffffffffff166338cc48316040518163ffffffff1660e01b8152600401602060405180830381600087803b15801561113d57600080fd5b505af1158015611151573d6000803e3d6000fd5b505050506040513d602081101561116757600080fd5b810190808051906020019092919050505073ffffffffffffffffffffffffffffffffffffffff16600160009054906101000a900473ffffffffffffffffffffffffffffffffffffffff1673ffffffffffffffffffffffffffffffffffffffff16146112b257600260009054906101000a900473ffffffffffffffffffffffffffffffffffffffff1673ffffffffffffffffffffffffffffffffffffffff166338cc48316040518163ffffffff1660e01b8152600401602060405180830381600087803b15801561123657600080fd5b505af115801561124a573d6000803e3d6000fd5b505050506040513d602081101561126057600080fd5b8101908080519060200190929190505050600160006101000a81548173ffffffffffffffffffffffffffffffffffffffff021916908373ffffffffffffffffffffffffffffffffffffffff1602179055505b600160009054906101000a900473ffffffffffffffffffffffffffffffffffffffff1673ffffffffffffffffffffffffffffffffffffffff1663524f3889836040518263ffffffff1660e01b81526004018080602001828103825283818151815260200191508051906020019080838360005b83811015611340578082015181840152602081019050611325565b50505050905090810190601f16801561136d5780820380516001836020036101000a031916815260200191505b5092505050602060405180830381600087803b15801561138c57600080fd5b505af11580156113a0573d6000803e3d6000fd5b505050506040513d60208110156113b657600080fd5b81019080805190602001909291905050509050919050565b600080831180156113e0575060208311155b6113e957600080fd5b600a84029350606060016040519080825280601f01601f1916602001820160405280156114255781602001600182028038833980820191505090505b5090508360f81b8160008151811061143957fe5b60200101907effffffffffffffffffffffffffffffffffffffffffffffffffffffffffffff1916908160001a905350606060206040519080825280601f01601f19166020018201604052801561149e5781602001600182028038833980820191505090505b509050606060206040519080825280601f01601f1916602001820160405280156114d75781602001600182028038833980820191505090505b50905060006114e4611985565b905060208352424118600143034018602084015260208252806020830152606060206040519080825280601f01601f1916602001820160405280156115385781602001600182028038833980820191505090505b509050886020820152606060086040519080825280601f01601f1916602001820160405280156115775781602001600182028038833980820191505090505b50905061158a8260186008846000611ca5565b50611593612fb1565b604051806080016040528087815260200188815260200186815260200184815250905060006115f86040518060400160405280600681526020017f72616e646f6d0000000000000000000000000000000000000000000000000000815250838c611d04565b9050606060086040519080825280601f01601f1916602001820160405280156116305781602001600182028038833980820191505090505b50905060208401517f0100000000000000000000000000000000000000000000000000000000000000810460278301537e01000000000000000000000000000000000000000000000000000000000000810460268301537d010000000000000000000000000000000000000000000000000000000000810460258301537c0100000000000000000000000000000000000000000000000000000000810460248301537b01000000000000000000000000000000000000000000000000000000810460238301537a01000000000000000000000000000000000000000000000000000081046022830153790100000000000000000000000000000000000000000000000000810460218301537801000000000000000000000000000000000000000000000000810460208301535061195682828560016004811061176f57fe5b602002015160028760006004811061178357fe5b60200201516040518082805190602001908083835b602083106117bb5780518252602082019150602081019050602083039250611798565b6001836020036101000a038019825116818451168082178552505050505050905001915050602060405180830381855afa1580156117fd573d6000803e3d6000fd5b5050506040513d602081101561181257600080fd5b81019080805190602001909291905050508760026004811061183057fe5b60200201516040516020018085805190602001908083835b6020831061186b5780518252602082019150602081019050602083039250611848565b6001836020036101000a03801982511681845116808217855250505050505090500184805190602001908083835b602083106118bc5780518252602082019150602081019050602083039250611899565b6001836020036101000a03801982511681845116808217855250505050505090500183815260200182805190602001908083835b6020831061191357805182526020820191506020810190506020830392506118f0565b6001836020036101000a03801982511681845116808217855250505050505090500194505050505060405160208183030381529060405280519060200120612073565b8199505050505050505050509392505050565b6000813b9050919050565b600061197e61208f565b9050919050565b60008073ffffffffffffffffffffffffffffffffffffffff16600260009054906101000a900473ffffffffffffffffffffffffffffffffffffffff1673ffffffffffffffffffffffffffffffffffffffff161480611a0d57506000611a0b600260009054906101000a900473ffffffffffffffffffffffffffffffffffffffff16611969565b145b15611a1e57611a1c6000611974565b505b600260009054906101000a900473ffffffffffffffffffffffffffffffffffffffff1673ffffffffffffffffffffffffffffffffffffffff166338cc48316040518163ffffffff1660e01b8152600401602060405180830381600087803b158015611a8857600080fd5b505af1158015611a9c573d6000803e3d6000fd5b505050506040513d6020811015611ab257600080fd5b810190808051906020019092919050505073ffffffffffffffffffffffffffffffffffffffff16600160009054906101000a900473ffffffffffffffffffffffffffffffffffffffff1673ffffffffffffffffffffffffffffffffffffffff1614611bfd57600260009054906101000a900473ffffffffffffffffffffffffffffffffffffffff1673ffffffffffffffffffffffffffffffffffffffff166338cc48316040518163ffffffff1660e01b8152600401602060405180830381600087803b158015611b8157600080fd5b505af1158015611b95573d6000803e3d6000fd5b505050506040513d6020811015611bab57600080fd5b8101908080519060200190929190505050600160006101000a81548173ffffffffffffffffffffffffffffffffffffffff021916908373ffffffffffffffffffffffffffffffffffffffff1602179055505b600160009054906101000a900473ffffffffffffffffffffffffffffffffffffffff1673ffffffffffffffffffffffffffffffffffffffff1663abaa5f3e6040518163ffffffff1660e01b815260040160206040518083038186803b158015611c6557600080fd5b505afa158015611c79573d6000803e3d6000fd5b505050506040513d6020811015611c8f57600080fd5b8101908080519060200190929190505050905090565b6060600082850190508084511015611cbc57600080fd5b600086602001905060008460200190505b868860200101821015611cf55781890151808288015250602082019150602081019050611ccd565b85935050505095945050505050565b60008073ffffffffffffffffffffffffffffffffffffffff16600260009054906101000a900473ffffffffffffffffffffffffffffffffffffffff1673ffffffffffffffffffffffffffffffffffffffff161480611d8c57506000611d8a600260009054906101000a900473ffffffffffffffffffffffffffffffffffffffff16611969565b145b15611d9d57611d9b6000611974565b505b600260009054906101000a900473ffffffffffffffffffffffffffffffffffffffff1673ffffffffffffffffffffffffffffffffffffffff166338cc48316040518163ffffffff1660e01b8152600401602060405180830381600087803b158015611e0757600080fd5b505af1158015611e1b573d6000803e3d6000fd5b505050506040513d6020811015611e3157600080fd5b810190808051906020019092919050505073ffffffffffffffffffffffffffffffffffffffff16600160009054906101000a900473ffffffffffffffffffffffffffffffffffffffff1673ffffffffffffffffffffffffffffffffffffffff1614611f7c57600260009054906101000a900473ffffffffffffffffffffffffffffffffffffffff1673ffffffffffffffffffffffffffffffffffffffff166338cc48316040518163ffffffff1660e01b8152600401602060405180830381600087803b158015611f0057600080fd5b505af1158015611f14573d6000803e3d6000fd5b505050506040513d6020811015611f2a57600080fd5b8101908080519060200190929190505050600160006101000a81548173ffffffffffffffffffffffffffffffffffffffff021916908373ffffffffffffffffffffffffffffffffffffffff1602179055505b60606004604051908082528060200260200182016040528015611fb357816020015b6060815260200190600190039081611f9e5790505b50905083600060048110611fc357fe5b602002015181600081518110611fd557fe5b602002602001018190525083600160048110611fed57fe5b602002015181600181518110611fff57fe5b60200260200101819052508360026004811061201757fe5b60200201518160028151811061202957fe5b60200260200101819052508360036004811061204157fe5b60200201518160038151811061205357fe5b60200260200101819052506120698582856125e6565b9150509392505050565b8060046000848152602001908152602001600020819055505050565b6000806120af731d3b2638a7cc9f2cb3d298a3da7a90b67e5506ed611969565b111561215157731d3b2638a7cc9f2cb3d298a3da7a90b67e5506ed600260006101000a81548173ffffffffffffffffffffffffffffffffffffffff021916908373ffffffffffffffffffffffffffffffffffffffff1602179055506121486040518060400160405280600b81526020017f6574685f6d61696e6e6574000000000000000000000000000000000000000000815250612b4c565b600190506125e3565b600061217073c03a2615d5efaf5f49f60b7bb6583eaec212fdf1611969565b11156122125773c03a2615d5efaf5f49f60b7bb6583eaec212fdf1600260006101000a81548173ffffffffffffffffffffffffffffffffffffffff021916908373ffffffffffffffffffffffffffffffffffffffff1602179055506122096040518060400160405280600c81526020017f6574685f726f707374656e330000000000000000000000000000000000000000815250612b4c565b600190506125e3565b600061223173b7a07bcf2ba2f2703b24c0691b5278999c59ac7e611969565b11156122d35773b7a07bcf2ba2f2703b24c0691b5278999c59ac7e600260006101000a81548173ffffffffffffffffffffffffffffffffffffffff021916908373ffffffffffffffffffffffffffffffffffffffff1602179055506122ca6040518060400160405280600981526020017f6574685f6b6f76616e0000000000000000000000000000000000000000000000815250612b4c565b600190506125e3565b60006122f273146500cfd35b22e4a392fe0adc06de1a1368ed48611969565b11156123945773146500cfd35b22e4a392fe0adc06de1a1368ed48600260006101000a81548173ffffffffffffffffffffffffffffffffffffffff021916908373ffffffffffffffffffffffffffffffffffffffff16021790555061238b6040518060400160405280600b81526020017f6574685f72696e6b656279000000000000000000000000000000000000000000815250612b4c565b600190506125e3565b60006123b373a2998efd205fb9d4b4963afb70778d6354ad3a41611969565b11156124555773a2998efd205fb9d4b4963afb70778d6354ad3a41600260006101000a81548173ffffffffffffffffffffffffffffffffffffffff021916908373ffffffffffffffffffffffffffffffffffffffff16021790555061244c6040518060400160405280600a81526020017f6574685f676f65726c6900000000000000000000000000000000000000000000815250612b4c565b600190506125e3565b6000612474736f485c8bf6fc43ea212e93bbf8ce046c7f1cb475611969565b11156124d857736f485c8bf6fc43ea212e93bbf8ce046c7f1cb475600260006101000a81548173ffffffffffffffffffffffffffffffffffffffff021916908373ffffffffffffffffffffffffffffffffffffffff160217905550600190506125e3565b60006124f77320e12a1f859b3feae5fb2a0a32c18f5a65555bbf611969565b111561255b577320e12a1f859b3feae5fb2a0a32c18f5a65555bbf600260006101000a81548173ffffffffffffffffffffffffffffffffffffffff021916908373ffffffffffffffffffffffffffffffffffffffff160217905550600190506125e3565b600061257a7351efaf4c8b3c9afbd5ab9f4bbc82784ab6ef8faa611969565b11156125de577351efaf4c8b3c9afbd5ab9f4bbc82784ab6ef8faa600260006101000a81548173ffffffffffffffffffffffffffffffffffffffff021916908373ffffffffffffffffffffffffffffffffffffffff160217905550600190506125e3565b600090505b90565b60008073ffffffffffffffffffffffffffffffffffffffff16600260009054906101000a900473ffffffffffffffffffffffffffffffffffffffff1673ffffffffffffffffffffffffffffffffffffffff16148061266e5750600061266c600260009054906101000a900473ffffffffffffffffffffffffffffffffffffffff16611969565b145b1561267f5761267d6000611974565b505b600260009054906101000a900473ffffffffffffffffffffffffffffffffffffffff1673ffffffffffffffffffffffffffffffffffffffff166338cc48316040518163ffffffff1660e01b8152600401602060405180830381600087803b1580156126e957600080fd5b505af11580156126fd573d6000803e3d6000fd5b505050506040513d602081101561271357600080fd5b810190808051906020019092919050505073ffffffffffffffffffffffffffffffffffffffff16600160009054906101000a900473ffffffffffffffffffffffffffffffffffffffff1673ffffffffffffffffffffffffffffffffffffffff161461285e57600260009054906101000a900473ffffffffffffffffffffffffffffffffffffffff1673ffffffffffffffffffffffffffffffffffffffff166338cc48316040518163ffffffff1660e01b8152600401602060405180830381600087803b1580156127e257600080fd5b505af11580156127f6573d6000803e3d6000fd5b505050506040513d602081101561280c57600080fd5b8101908080519060200190929190505050600160006101000a81548173ffffffffffffffffffffffffffffffffffffffff021916908373ffffffffffffffffffffffffffffffffffffffff1602179055505b6000600160009054906101000a900473ffffffffffffffffffffffffffffffffffffffff1673ffffffffffffffffffffffffffffffffffffffff16632ef3accc86856040518363ffffffff1660e01b81526004018080602001838152602001828103825284818151815260200191508051906020019080838360005b838110156128f55780820151818401526020810190506128da565b50505050905090810190601f1680156129225780820380516001836020036101000a031916815260200191505b509350505050602060405180830381600087803b15801561294257600080fd5b505af1158015612956573d6000803e3d6000fd5b505050506040513d602081101561296c57600080fd5b81019080805190602001909291905050509050823a02670de0b6b3a76400000181111561299f576000801b915050612b45565b60606129aa85612b66565b9050600160009054906101000a900473ffffffffffffffffffffffffffffffffffffffff1673ffffffffffffffffffffffffffffffffffffffff1663c55c1cb68360008985896040518663ffffffff1660e01b8152600401808581526020018060200180602001848152602001838103835286818151815260200191508051906020019080838360005b83811015612a4f578082015181840152602081019050612a34565b50505050905090810190601f168015612a7c5780820380516001836020036101000a031916815260200191505b50838103825285818151815260200191508051906020019080838360005b83811015612ab5578082015181840152602081019050612a9a565b50505050905090810190601f168015612ae25780820380516001836020036101000a031916815260200191505b5096505050505050506020604051808303818588803b158015612b0457600080fd5b505af1158015612b18573d6000803e3d6000fd5b50505050506040513d6020811015612b2f57600080fd5b8101908080519060200190929190505050925050505b9392505050565b8060039080519060200190612b62929190612fd8565b5050565b6060612b70612be6565b612b78613058565b612b8481610400612bf2565b612b8d81612c3c565b60008090505b8351811015612bcf57612bc2848281518110612bab57fe5b602002602001015183612c4a90919063ffffffff16565b8080600101915050612b93565b50612bd981612c6f565b8060000151915050919050565b60405180590338823950565b6000819050600060208281612c0357fe5b0614612c1c5760208181612c1357fe5b06602003810190505b808360200181815250506040518084526000815281810160405250505050565b612c47816004612c7d565b50565b612c578260028351612c9e565b612c6a8183612dde90919063ffffffff16565b505050565b612c7a816007612c7d565b50565b612c9a601f60058360ff16901b1783612e8990919063ffffffff16565b5050565b60178111612cca57612cc58160058460ff16901b60ff161784612e8990919063ffffffff16565b612dd9565b60ff8111612d0b57612cef601860058460ff16901b1784612e8990919063ffffffff16565b612d0581600185612ec99092919063ffffffff16565b50612dd8565b61ffff8111612d4d57612d31601960058460ff16901b1784612e8990919063ffffffff16565b612d4781600285612ec99092919063ffffffff16565b50612dd7565b63ffffffff8111612d9157612d75601a60058460ff16901b1784612e8990919063ffffffff16565b612d8b81600485612ec99092919063ffffffff16565b50612dd6565b67ffffffffffffffff8111612dd557612dbd601b60058460ff16901b1784612e8990919063ffffffff16565b612dd381600885612ec99092919063ffffffff16565b505b5b5b5b5b505050565b612de6613058565b82602001518360000151518351011115612e1657612e15836002612e0f86602001518651612f30565b02612f4c565b5b60008060008451905085518051602081830101945086518101825260208701935050505b60208110612e5d5781518352602083019250602082019150602081039050612e3a565b60006001826020036101000a039050801983511681855116818117865250508694505050505092915050565b81602001516001836000015151011115612eaf57612eae826002846020015102612f4c565b5b815180516020818301018381536001820183525050505050565b612ed1613058565b836020015184600001515183011115612eff57612efe846002612ef8876020015186612f30565b02612f4c565b5b60006001836101000a0390508451805184818301018684198251161781528582018352505050849150509392505050565b600081831115612f4257829050612f46565b8190505b92915050565b606082600001519050612f5f8383612bf2565b612f698382612dde565b50505050565b6040518060800160405280600073ffffffffffffffffffffffffffffffffffffffff168152602001600081526020016000151581526020016000151581525090565b60405180608001604052806004905b6060815260200190600190039081612fc05790505090565b828054600181600116156101000203166002900490600052602060002090601f016020900481019282601f1061301957805160ff1916838001178555613047565b82800160010185558215613047579182015b8281111561304657825182559160200191906001019061302b565b5b5090506130549190613072565b5090565b604051806040016040528060608152602001600081525090565b61309491905b80821115613090576000816000905550600101613078565b5090565b9056fea265627a7a7231582003fe8df32f8595c5951a13dd6267e11ec7442964096fa48da26d4538d26d4f5764736f6c634300050c0032",
  "source": "import \"./Ownable.sol\";\r\nimport \"./provableAPI.sol\";\r\npragma solidity 0.5.12;\r\n\r\ncontract Coinflip is Ownable, usingProvable {\r\n    uint256 public latestNumber;\r\n    uint256 constant NUM_RANDOM_BYTES_REQUESTED = 1;\r\n\r\n    event LogNewProvableQuery(string description);\r\n    event generatedRandomNumber(uint256 randomNumber);\r\n    event resultOutcome(address player, bool won, uint256 playerBalance);\r\n\r\n    // constructor() public {\r\n    //     update();\r\n    // }\r\n\r\n    mapping(address => bool) public bettings;\r\n    mapping(bytes32 => Bet) public waiting;\r\n    mapping(address => uint256) private playerBalances;\r\n\r\n    uint256 public balance;\r\n\r\n    struct Bet {\r\n        address player;\r\n        uint256 betValue;\r\n        bool heads;\r\n        bool won;\r\n    }\r\n\r\n    // function update() public payable {\r\n    //     uint256 QUERY_EXECUTION_DELAY = 0;\r\n    //     uint256 GAS_FOR_CALLBACK = 200000;\r\n    //     bytes32 queryId = provable_newRandomDSQuery(\r\n    //         QUERY_EXECUTION_DELAY,\r\n    //         NUM_RANDOM_BYTES_REQUESTED,\r\n    //         GAS_FOR_CALLBACK\r\n    //     );\r\n    //     waiting[queryId] = newBet;\r\n    //     emit LogNewProvableQuery(\r\n    //         \"Provable query was sent, standing by for the answer...\"\r\n    //     );\r\n    // }\r\n\r\n    // Old Random Function\r\n    // function random() public view returns (bool) {\r\n    //     return (now % 2 != 0);\r\n    // }\r\n\r\n    function flipCoin(bool bet) public payable {\r\n        require(msg.value <= balance);\r\n        Bet memory newBet;\r\n        newBet.heads = bet;\r\n        //player pays fee for calling oracle\r\n        newBet.betValue = msg.value - provable_getPrice(\"RANDOM\");\r\n        newBet.player = msg.sender;\r\n        // Random Function\r\n        uint256 QUERY_EXECUTION_DELAY = 0;\r\n        uint256 GAS_FOR_CALLBACK = 200000;\r\n        bytes32 queryId = provable_newRandomDSQuery(\r\n            QUERY_EXECUTION_DELAY,\r\n            NUM_RANDOM_BYTES_REQUESTED,\r\n            GAS_FOR_CALLBACK\r\n        );\r\n        waiting[queryId] = newBet;\r\n\r\n        //bool headsOrTails = random();\r\n        // if (headsOrTails == bet) {\r\n        //     balance = balance - (msg.value);\r\n        //     msg.sender.transfer((msg.value * 2));\r\n        //     bettings[msg.sender] = true;\r\n        // } else {\r\n        //     balance = balance + msg.value;\r\n        //     bettings[msg.sender] = false;\r\n        // }\r\n    }\r\n\r\n    function __callback(\r\n        bytes32 _queryId,\r\n        string memory _result,\r\n        bytes memory _proof\r\n    ) public {\r\n        require(msg.sender == provable_cbAddress());\r\n        bool result = (uint256(keccak256(abi.encodePacked(_result))) % 2) != 0;\r\n        if (result = waiting[_queryId].heads) {\r\n            waiting[_queryId].won = true;\r\n            balance = balance - (waiting[_queryId].betValue);\r\n            playerBalances[waiting[_queryId].player] +=\r\n                2 *\r\n                (waiting[_queryId].betValue);\r\n        } else {\r\n            waiting[_queryId].won = false;\r\n            balance += (waiting[_queryId].betValue);\r\n            //playerBalances[waiting[_queryId].player] - (waiting[_queryId].betValue)\r\n        }\r\n        //emit generatedRandomNumber(randomNumber);\r\n        emit resultOutcome(\r\n            waiting[_queryId].player,\r\n            waiting[_queryId].won,\r\n            playerBalances[waiting[_queryId].player]\r\n        );\r\n        //clear mapping\r\n        delete waiting[_queryId];\r\n    }\r\n\r\n    function deposit() public payable {\r\n        balance += msg.value;\r\n    }\r\n\r\n    function getLastFlip(address player) public view returns (bool) {\r\n        return bettings[player];\r\n    }\r\n\r\n    function getBalance() public view returns (uint256) {\r\n        return balance;\r\n    }\r\n\r\n    function withdrawAll() public onlyOwner returns (uint256) {\r\n        uint256 toTransfer = balance;\r\n        balance = 0;\r\n        msg.sender.transfer(toTransfer);\r\n        return toTransfer;\r\n    }\r\n}\r\n",
  "sourcePath": "C:/Users/LukeO/Desktop/Coin/contracts/Coinflip.sol",
  "compiler": {
    "name": "solc",
    "version": "0.5.12+commit.7709ece9.Emscripten.clang"
  },
  "schemaVersion": "3.0.16",
  "updatedAt": "2020-10-13T14:09:12.149Z",
  "devdoc": {
    "methods": {
      "__callback(bytes32,string)": {
        "details": "The following `__callback` functions are just placeholders ideally     meant to be defined in child contract when proofs are used.     The function bodies simply silence compiler warnings."
      }
    }
  },
  "userdoc": {
    "methods": {}
  }
}