{
  "contractName": "Coinflip",
  "abi": [
    {
      "anonymous": false,
      "inputs": [
        {
          "indexed": false,
          "internalType": "string",
          "name": "description",
          "type": "string"
        }
      ],
      "name": "LogNewProvableQuery",
      "type": "event"
    },
    {
      "anonymous": false,
      "inputs": [
        {
          "indexed": false,
          "internalType": "bool",
          "name": "randomNumber",
          "type": "bool"
        }
      ],
      "name": "generatedRandomNumber",
      "type": "event"
    },
    {
      "anonymous": false,
      "inputs": [
        {
          "indexed": false,
          "internalType": "address",
          "name": "player",
          "type": "address"
        },
        {
          "indexed": false,
          "internalType": "bool",
          "name": "won",
          "type": "bool"
        },
        {
          "indexed": false,
          "internalType": "uint256",
          "name": "playerBalance",
          "type": "uint256"
        }
      ],
      "name": "resultOutcome",
      "type": "event"
    },
    {
      "constant": true,
      "inputs": [],
      "name": "balance",
      "outputs": [
        {
          "internalType": "uint256",
          "name": "",
          "type": "uint256"
        }
      ],
      "payable": false,
      "stateMutability": "view",
      "type": "function"
    },
    {
      "constant": true,
      "inputs": [
        {
          "internalType": "address",
          "name": "",
          "type": "address"
        }
      ],
      "name": "bettings",
      "outputs": [
        {
          "internalType": "bool",
          "name": "",
          "type": "bool"
        }
      ],
      "payable": false,
      "stateMutability": "view",
      "type": "function"
    },
    {
      "constant": true,
      "inputs": [],
      "name": "latestNumber",
      "outputs": [
        {
          "internalType": "uint256",
          "name": "",
          "type": "uint256"
        }
      ],
      "payable": false,
      "stateMutability": "view",
      "type": "function"
    },
    {
      "constant": true,
      "inputs": [],
      "name": "owner",
      "outputs": [
        {
          "internalType": "address",
          "name": "",
          "type": "address"
        }
      ],
      "payable": false,
      "stateMutability": "view",
      "type": "function"
    },
    {
      "constant": true,
      "inputs": [
        {
          "internalType": "bytes32",
          "name": "",
          "type": "bytes32"
        }
      ],
      "name": "waiting",
      "outputs": [
        {
          "internalType": "address",
          "name": "player",
          "type": "address"
        },
        {
          "internalType": "uint256",
          "name": "betValue",
          "type": "uint256"
        },
        {
          "internalType": "bool",
          "name": "heads",
          "type": "bool"
        },
        {
          "internalType": "bool",
          "name": "won",
          "type": "bool"
        }
      ],
      "payable": false,
      "stateMutability": "view",
      "type": "function"
    },
    {
      "constant": false,
      "inputs": [
        {
          "internalType": "bool",
          "name": "bet",
          "type": "bool"
        }
      ],
      "name": "flipCoin",
      "outputs": [],
      "payable": true,
      "stateMutability": "payable",
      "type": "function"
    },
    {
      "constant": false,
      "inputs": [
        {
          "internalType": "bytes32",
          "name": "_myid",
          "type": "bytes32"
        },
        {
          "internalType": "string",
          "name": "_result",
          "type": "string"
        }
      ],
      "name": "__callback",
      "outputs": [],
      "payable": false,
      "stateMutability": "nonpayable",
      "type": "function"
    },
    {
      "constant": false,
      "inputs": [
        {
          "internalType": "bytes32",
          "name": "_queryId",
          "type": "bytes32"
        },
        {
          "internalType": "string",
          "name": "_result",
          "type": "string"
        },
        {
          "internalType": "bytes",
          "name": "_proof",
          "type": "bytes"
        }
      ],
      "name": "__callback",
      "outputs": [],
      "payable": false,
      "stateMutability": "nonpayable",
      "type": "function"
    },
    {
      "constant": false,
      "inputs": [],
      "name": "deposit",
      "outputs": [],
      "payable": true,
      "stateMutability": "payable",
      "type": "function"
    },
    {
      "constant": true,
      "inputs": [
        {
          "internalType": "address",
          "name": "player",
          "type": "address"
        }
      ],
      "name": "getLastFlip",
      "outputs": [
        {
          "internalType": "bool",
          "name": "",
          "type": "bool"
        }
      ],
      "payable": false,
      "stateMutability": "view",
      "type": "function"
    },
    {
      "constant": true,
      "inputs": [],
      "name": "getBalance",
      "outputs": [
        {
          "internalType": "uint256",
          "name": "",
          "type": "uint256"
        }
      ],
      "payable": false,
      "stateMutability": "view",
      "type": "function"
    },
    {
      "constant": false,
      "inputs": [],
      "name": "withdrawAll",
      "outputs": [
        {
          "internalType": "uint256",
          "name": "",
          "type": "uint256"
        }
      ],
      "payable": false,
      "stateMutability": "nonpayable",
      "type": "function"
    }
  ],
  "bytecode": "0x6080604052336000806101000a81548173ffffffffffffffffffffffffffffffffffffffff021916908373ffffffffffffffffffffffffffffffffffffffff160217905550613107806100536000396000f3fe6080604052600436106100a75760003560e01c80637b8ff38f116100645780637b8ff38f1461047c578063853828b6146104ac5780638da5cb5b146104d7578063b69ef8a81461052e578063d0e30db014610559578063dc34b0aa14610563576100a7565b806312065fe0146100ac5780631e6d5673146100d757806327dc297e1461014057806338bbfa50146102125780633a831e071461037b57806376f358af14610413575b600080fd5b3480156100b857600080fd5b506100c161058e565b6040518082815260200191505060405180910390f35b3480156100e357600080fd5b50610126600480360360208110156100fa57600080fd5b81019080803573ffffffffffffffffffffffffffffffffffffffff169060200190929190505050610598565b604051808215151515815260200191505060405180910390f35b34801561014c57600080fd5b506102106004803603604081101561016357600080fd5b81019080803590602001909291908035906020019064010000000081111561018a57600080fd5b82018360208201111561019c57600080fd5b803590602001918460018302840111640100000000831117156101be57600080fd5b91908080601f016020809104026020016040519081016040528093929190818152602001838380828437600081840152601f19601f8201169050808301925050505050505091929192905050506105ee565b005b34801561021e57600080fd5b506103796004803603606081101561023557600080fd5b81019080803590602001909291908035906020019064010000000081111561025c57600080fd5b82018360208201111561026e57600080fd5b8035906020019184600183028401116401000000008311171561029057600080fd5b91908080601f016020809104026020016040519081016040528093929190818152602001838380828437600081840152601f19601f820116905080830192505050505050509192919290803590602001906401000000008111156102f357600080fd5b82018360208201111561030557600080fd5b8035906020019184600183028401116401000000008311171561032757600080fd5b91908080601f016020809104026020016040519081016040528093929190818152602001838380828437600081840152601f19601f820116905080830192505050505050509192919290505050610631565b005b34801561038757600080fd5b506103b46004803603602081101561039e57600080fd5b8101908080359060200190929190505050610a5c565b604051808573ffffffffffffffffffffffffffffffffffffffff1673ffffffffffffffffffffffffffffffffffffffff168152602001848152602001831515151581526020018215151515815260200194505050505060405180910390f35b34801561041f57600080fd5b506104626004803603602081101561043657600080fd5b81019080803573ffffffffffffffffffffffffffffffffffffffff169060200190929190505050610ac6565b604051808215151515815260200191505060405180910390f35b6104aa6004803603602081101561049257600080fd5b81019080803515159060200190929190505050610ae6565b005b3480156104b857600080fd5b506104c1610c5a565b6040518082815260200191505060405180910390f35b3480156104e357600080fd5b506104ec610d12565b604051808273ffffffffffffffffffffffffffffffffffffffff1673ffffffffffffffffffffffffffffffffffffffff16815260200191505060405180910390f35b34801561053a57600080fd5b50610543610d37565b6040518082815260200191505060405180910390f35b610561610d3d565b005b34801561056f57600080fd5b50610578610d4f565b6040518082815260200191505060405180910390f35b6000600a54905090565b6000600760008373ffffffffffffffffffffffffffffffffffffffff1673ffffffffffffffffffffffffffffffffffffffff16815260200190815260200160002060009054906101000a900460ff169050919050565b61062d828260006040519080825280601f01601f1916602001820160405280156106275781602001600182028038833980820191505090505b50610631565b5050565b610639610d55565b73ffffffffffffffffffffffffffffffffffffffff163373ffffffffffffffffffffffffffffffffffffffff161461067057600080fd5b6000806002846040516020018082805190602001908083835b602083106106ac5780518252602082019150602081019050602083039250610689565b6001836020036101000a0380198251168184511680821785525050505050509050019150506040516020818303038152906040528051906020012060001c816106f157fe5b06141590506008600085815260200190815260200160002060020160009054906101000a900460ff16905080156108135760016008600086815260200190815260200160002060020160016101000a81548160ff0219169083151502179055506008600085815260200190815260200160002060010154600a5403600a819055506008600085815260200190815260200160002060010154600202600960006008600088815260200190815260200160002060000160009054906101000a900473ffffffffffffffffffffffffffffffffffffffff1673ffffffffffffffffffffffffffffffffffffffff1673ffffffffffffffffffffffffffffffffffffffff16815260200190815260200160002060008282540192505081905550610869565b60006008600086815260200190815260200160002060020160016101000a81548160ff0219169083151502179055506008600085815260200190815260200160002060010154600a600082825401925050819055505b7ff208034f63315ba7b9b05f8281dd99f590ff62ef0ec5c5fd938b20e25d4d1f2f81604051808215151515815260200191505060405180910390a17fb06994c41e38decba2b0b5f15613ce3beb9bd60f7bd5c069eb362e66aa0dddbc6008600086815260200190815260200160002060000160009054906101000a900473ffffffffffffffffffffffffffffffffffffffff166008600087815260200190815260200160002060020160019054906101000a900460ff1660096000600860008a815260200190815260200160002060000160009054906101000a900473ffffffffffffffffffffffffffffffffffffffff1673ffffffffffffffffffffffffffffffffffffffff1673ffffffffffffffffffffffffffffffffffffffff16815260200190815260200160002054604051808473ffffffffffffffffffffffffffffffffffffffff1673ffffffffffffffffffffffffffffffffffffffff16815260200183151515158152602001828152602001935050505060405180910390a160086000858152602001908152602001600020600080820160006101000a81549073ffffffffffffffffffffffffffffffffffffffff021916905560018201600090556002820160006101000a81549060ff02191690556002820160016101000a81549060ff0219169055505050505050565b60086020528060005260406000206000915090508060000160009054906101000a900473ffffffffffffffffffffffffffffffffffffffff16908060010154908060020160009054906101000a900460ff16908060020160019054906101000a900460ff16905084565b60076020528060005260406000206000915054906101000a900460ff1681565b600a54341115610af557600080fd5b610afd612faa565b81816040019015159081151581525050610b4b6040518060400160405280600681526020017f52414e444f4d0000000000000000000000000000000000000000000000000000815250611075565b340381602001818152505033816000019073ffffffffffffffffffffffffffffffffffffffff16908173ffffffffffffffffffffffffffffffffffffffff16815250506000809050600062030d4090506000610ba983600184611409565b9050836008600083815260200190815260200160002060008201518160000160006101000a81548173ffffffffffffffffffffffffffffffffffffffff021916908373ffffffffffffffffffffffffffffffffffffffff1602179055506020820151816001015560408201518160020160006101000a81548160ff02191690831515021790555060608201518160020160016101000a81548160ff0219169083151502179055509050505050505050565b60008060009054906101000a900473ffffffffffffffffffffffffffffffffffffffff1673ffffffffffffffffffffffffffffffffffffffff163373ffffffffffffffffffffffffffffffffffffffff1614610cb557600080fd5b6000600a5490506000600a819055503373ffffffffffffffffffffffffffffffffffffffff166108fc829081150290604051600060405180830381858888f19350505050158015610d0a573d6000803e3d6000fd5b508091505090565b6000809054906101000a900473ffffffffffffffffffffffffffffffffffffffff1681565b600a5481565b34600a60008282540192505081905550565b60065481565b60008073ffffffffffffffffffffffffffffffffffffffff16600260009054906101000a900473ffffffffffffffffffffffffffffffffffffffff1673ffffffffffffffffffffffffffffffffffffffff161480610ddd57506000610ddb600260009054906101000a900473ffffffffffffffffffffffffffffffffffffffff166119a4565b145b15610dee57610dec60006119af565b505b600260009054906101000a900473ffffffffffffffffffffffffffffffffffffffff1673ffffffffffffffffffffffffffffffffffffffff166338cc48316040518163ffffffff1660e01b8152600401602060405180830381600087803b158015610e5857600080fd5b505af1158015610e6c573d6000803e3d6000fd5b505050506040513d6020811015610e8257600080fd5b810190808051906020019092919050505073ffffffffffffffffffffffffffffffffffffffff16600160009054906101000a900473ffffffffffffffffffffffffffffffffffffffff1673ffffffffffffffffffffffffffffffffffffffff1614610fcd57600260009054906101000a900473ffffffffffffffffffffffffffffffffffffffff1673ffffffffffffffffffffffffffffffffffffffff166338cc48316040518163ffffffff1660e01b8152600401602060405180830381600087803b158015610f5157600080fd5b505af1158015610f65573d6000803e3d6000fd5b505050506040513d6020811015610f7b57600080fd5b8101908080519060200190929190505050600160006101000a81548173ffffffffffffffffffffffffffffffffffffffff021916908373ffffffffffffffffffffffffffffffffffffffff1602179055505b600160009054906101000a900473ffffffffffffffffffffffffffffffffffffffff1673ffffffffffffffffffffffffffffffffffffffff1663c281d19e6040518163ffffffff1660e01b815260040160206040518083038186803b15801561103557600080fd5b505afa158015611049573d6000803e3d6000fd5b505050506040513d602081101561105f57600080fd5b8101908080519060200190929190505050905090565b60008073ffffffffffffffffffffffffffffffffffffffff16600260009054906101000a900473ffffffffffffffffffffffffffffffffffffffff1673ffffffffffffffffffffffffffffffffffffffff1614806110fd575060006110fb600260009054906101000a900473ffffffffffffffffffffffffffffffffffffffff166119a4565b145b1561110e5761110c60006119af565b505b600260009054906101000a900473ffffffffffffffffffffffffffffffffffffffff1673ffffffffffffffffffffffffffffffffffffffff166338cc48316040518163ffffffff1660e01b8152600401602060405180830381600087803b15801561117857600080fd5b505af115801561118c573d6000803e3d6000fd5b505050506040513d60208110156111a257600080fd5b810190808051906020019092919050505073ffffffffffffffffffffffffffffffffffffffff16600160009054906101000a900473ffffffffffffffffffffffffffffffffffffffff1673ffffffffffffffffffffffffffffffffffffffff16146112ed57600260009054906101000a900473ffffffffffffffffffffffffffffffffffffffff1673ffffffffffffffffffffffffffffffffffffffff166338cc48316040518163ffffffff1660e01b8152600401602060405180830381600087803b15801561127157600080fd5b505af1158015611285573d6000803e3d6000fd5b505050506040513d602081101561129b57600080fd5b8101908080519060200190929190505050600160006101000a81548173ffffffffffffffffffffffffffffffffffffffff021916908373ffffffffffffffffffffffffffffffffffffffff1602179055505b600160009054906101000a900473ffffffffffffffffffffffffffffffffffffffff1673ffffffffffffffffffffffffffffffffffffffff1663524f3889836040518263ffffffff1660e01b81526004018080602001828103825283818151815260200191508051906020019080838360005b8381101561137b578082015181840152602081019050611360565b50505050905090810190601f1680156113a85780820380516001836020036101000a031916815260200191505b5092505050602060405180830381600087803b1580156113c757600080fd5b505af11580156113db573d6000803e3d6000fd5b505050506040513d60208110156113f157600080fd5b81019080805190602001909291905050509050919050565b6000808311801561141b575060208311155b61142457600080fd5b600a84029350606060016040519080825280601f01601f1916602001820160405280156114605781602001600182028038833980820191505090505b5090508360f81b8160008151811061147457fe5b60200101907effffffffffffffffffffffffffffffffffffffffffffffffffffffffffffff1916908160001a905350606060206040519080825280601f01601f1916602001820160405280156114d95781602001600182028038833980820191505090505b509050606060206040519080825280601f01601f1916602001820160405280156115125781602001600182028038833980820191505090505b509050600061151f6119c0565b905060208352424118600143034018602084015260208252806020830152606060206040519080825280601f01601f1916602001820160405280156115735781602001600182028038833980820191505090505b509050886020820152606060086040519080825280601f01601f1916602001820160405280156115b25781602001600182028038833980820191505090505b5090506115c58260186008846000611ce0565b506115ce612fec565b604051806080016040528087815260200188815260200186815260200184815250905060006116336040518060400160405280600681526020017f72616e646f6d0000000000000000000000000000000000000000000000000000815250838c611d3f565b9050606060086040519080825280601f01601f19166020018201604052801561166b5781602001600182028038833980820191505090505b50905060208401517f0100000000000000000000000000000000000000000000000000000000000000810460278301537e01000000000000000000000000000000000000000000000000000000000000810460268301537d010000000000000000000000000000000000000000000000000000000000810460258301537c0100000000000000000000000000000000000000000000000000000000810460248301537b01000000000000000000000000000000000000000000000000000000810460238301537a0100000000000000000000000000000000000000000000000000008104602283015379010000000000000000000000000000000000000000000000000081046021830153780100000000000000000000000000000000000000000000000081046020830153506119918282856001600481106117aa57fe5b60200201516002876000600481106117be57fe5b60200201516040518082805190602001908083835b602083106117f657805182526020820191506020810190506020830392506117d3565b6001836020036101000a038019825116818451168082178552505050505050905001915050602060405180830381855afa158015611838573d6000803e3d6000fd5b5050506040513d602081101561184d57600080fd5b81019080805190602001909291905050508760026004811061186b57fe5b60200201516040516020018085805190602001908083835b602083106118a65780518252602082019150602081019050602083039250611883565b6001836020036101000a03801982511681845116808217855250505050505090500184805190602001908083835b602083106118f757805182526020820191506020810190506020830392506118d4565b6001836020036101000a03801982511681845116808217855250505050505090500183815260200182805190602001908083835b6020831061194e578051825260208201915060208101905060208303925061192b565b6001836020036101000a038019825116818451168082178552505050505050905001945050505050604051602081830303815290604052805190602001206120ae565b8199505050505050505050509392505050565b6000813b9050919050565b60006119b96120ca565b9050919050565b60008073ffffffffffffffffffffffffffffffffffffffff16600260009054906101000a900473ffffffffffffffffffffffffffffffffffffffff1673ffffffffffffffffffffffffffffffffffffffff161480611a4857506000611a46600260009054906101000a900473ffffffffffffffffffffffffffffffffffffffff166119a4565b145b15611a5957611a5760006119af565b505b600260009054906101000a900473ffffffffffffffffffffffffffffffffffffffff1673ffffffffffffffffffffffffffffffffffffffff166338cc48316040518163ffffffff1660e01b8152600401602060405180830381600087803b158015611ac357600080fd5b505af1158015611ad7573d6000803e3d6000fd5b505050506040513d6020811015611aed57600080fd5b810190808051906020019092919050505073ffffffffffffffffffffffffffffffffffffffff16600160009054906101000a900473ffffffffffffffffffffffffffffffffffffffff1673ffffffffffffffffffffffffffffffffffffffff1614611c3857600260009054906101000a900473ffffffffffffffffffffffffffffffffffffffff1673ffffffffffffffffffffffffffffffffffffffff166338cc48316040518163ffffffff1660e01b8152600401602060405180830381600087803b158015611bbc57600080fd5b505af1158015611bd0573d6000803e3d6000fd5b505050506040513d6020811015611be657600080fd5b8101908080519060200190929190505050600160006101000a81548173ffffffffffffffffffffffffffffffffffffffff021916908373ffffffffffffffffffffffffffffffffffffffff1602179055505b600160009054906101000a900473ffffffffffffffffffffffffffffffffffffffff1673ffffffffffffffffffffffffffffffffffffffff1663abaa5f3e6040518163ffffffff1660e01b815260040160206040518083038186803b158015611ca057600080fd5b505afa158015611cb4573d6000803e3d6000fd5b505050506040513d6020811015611cca57600080fd5b8101908080519060200190929190505050905090565b6060600082850190508084511015611cf757600080fd5b600086602001905060008460200190505b868860200101821015611d305781890151808288015250602082019150602081019050611d08565b85935050505095945050505050565b60008073ffffffffffffffffffffffffffffffffffffffff16600260009054906101000a900473ffffffffffffffffffffffffffffffffffffffff1673ffffffffffffffffffffffffffffffffffffffff161480611dc757506000611dc5600260009054906101000a900473ffffffffffffffffffffffffffffffffffffffff166119a4565b145b15611dd857611dd660006119af565b505b600260009054906101000a900473ffffffffffffffffffffffffffffffffffffffff1673ffffffffffffffffffffffffffffffffffffffff166338cc48316040518163ffffffff1660e01b8152600401602060405180830381600087803b158015611e4257600080fd5b505af1158015611e56573d6000803e3d6000fd5b505050506040513d6020811015611e6c57600080fd5b810190808051906020019092919050505073ffffffffffffffffffffffffffffffffffffffff16600160009054906101000a900473ffffffffffffffffffffffffffffffffffffffff1673ffffffffffffffffffffffffffffffffffffffff1614611fb757600260009054906101000a900473ffffffffffffffffffffffffffffffffffffffff1673ffffffffffffffffffffffffffffffffffffffff166338cc48316040518163ffffffff1660e01b8152600401602060405180830381600087803b158015611f3b57600080fd5b505af1158015611f4f573d6000803e3d6000fd5b505050506040513d6020811015611f6557600080fd5b8101908080519060200190929190505050600160006101000a81548173ffffffffffffffffffffffffffffffffffffffff021916908373ffffffffffffffffffffffffffffffffffffffff1602179055505b60606004604051908082528060200260200182016040528015611fee57816020015b6060815260200190600190039081611fd95790505b50905083600060048110611ffe57fe5b60200201518160008151811061201057fe5b60200260200101819052508360016004811061202857fe5b60200201518160018151811061203a57fe5b60200260200101819052508360026004811061205257fe5b60200201518160028151811061206457fe5b60200260200101819052508360036004811061207c57fe5b60200201518160038151811061208e57fe5b60200260200101819052506120a4858285612621565b9150509392505050565b8060046000848152602001908152602001600020819055505050565b6000806120ea731d3b2638a7cc9f2cb3d298a3da7a90b67e5506ed6119a4565b111561218c57731d3b2638a7cc9f2cb3d298a3da7a90b67e5506ed600260006101000a81548173ffffffffffffffffffffffffffffffffffffffff021916908373ffffffffffffffffffffffffffffffffffffffff1602179055506121836040518060400160405280600b81526020017f6574685f6d61696e6e6574000000000000000000000000000000000000000000815250612b87565b6001905061261e565b60006121ab73c03a2615d5efaf5f49f60b7bb6583eaec212fdf16119a4565b111561224d5773c03a2615d5efaf5f49f60b7bb6583eaec212fdf1600260006101000a81548173ffffffffffffffffffffffffffffffffffffffff021916908373ffffffffffffffffffffffffffffffffffffffff1602179055506122446040518060400160405280600c81526020017f6574685f726f707374656e330000000000000000000000000000000000000000815250612b87565b6001905061261e565b600061226c73b7a07bcf2ba2f2703b24c0691b5278999c59ac7e6119a4565b111561230e5773b7a07bcf2ba2f2703b24c0691b5278999c59ac7e600260006101000a81548173ffffffffffffffffffffffffffffffffffffffff021916908373ffffffffffffffffffffffffffffffffffffffff1602179055506123056040518060400160405280600981526020017f6574685f6b6f76616e0000000000000000000000000000000000000000000000815250612b87565b6001905061261e565b600061232d73146500cfd35b22e4a392fe0adc06de1a1368ed486119a4565b11156123cf5773146500cfd35b22e4a392fe0adc06de1a1368ed48600260006101000a81548173ffffffffffffffffffffffffffffffffffffffff021916908373ffffffffffffffffffffffffffffffffffffffff1602179055506123c66040518060400160405280600b81526020017f6574685f72696e6b656279000000000000000000000000000000000000000000815250612b87565b6001905061261e565b60006123ee73a2998efd205fb9d4b4963afb70778d6354ad3a416119a4565b11156124905773a2998efd205fb9d4b4963afb70778d6354ad3a41600260006101000a81548173ffffffffffffffffffffffffffffffffffffffff021916908373ffffffffffffffffffffffffffffffffffffffff1602179055506124876040518060400160405280600a81526020017f6574685f676f65726c6900000000000000000000000000000000000000000000815250612b87565b6001905061261e565b60006124af736f485c8bf6fc43ea212e93bbf8ce046c7f1cb4756119a4565b111561251357736f485c8bf6fc43ea212e93bbf8ce046c7f1cb475600260006101000a81548173ffffffffffffffffffffffffffffffffffffffff021916908373ffffffffffffffffffffffffffffffffffffffff1602179055506001905061261e565b60006125327320e12a1f859b3feae5fb2a0a32c18f5a65555bbf6119a4565b1115612596577320e12a1f859b3feae5fb2a0a32c18f5a65555bbf600260006101000a81548173ffffffffffffffffffffffffffffffffffffffff021916908373ffffffffffffffffffffffffffffffffffffffff1602179055506001905061261e565b60006125b57351efaf4c8b3c9afbd5ab9f4bbc82784ab6ef8faa6119a4565b1115612619577351efaf4c8b3c9afbd5ab9f4bbc82784ab6ef8faa600260006101000a81548173ffffffffffffffffffffffffffffffffffffffff021916908373ffffffffffffffffffffffffffffffffffffffff1602179055506001905061261e565b600090505b90565b60008073ffffffffffffffffffffffffffffffffffffffff16600260009054906101000a900473ffffffffffffffffffffffffffffffffffffffff1673ffffffffffffffffffffffffffffffffffffffff1614806126a9575060006126a7600260009054906101000a900473ffffffffffffffffffffffffffffffffffffffff166119a4565b145b156126ba576126b860006119af565b505b600260009054906101000a900473ffffffffffffffffffffffffffffffffffffffff1673ffffffffffffffffffffffffffffffffffffffff166338cc48316040518163ffffffff1660e01b8152600401602060405180830381600087803b15801561272457600080fd5b505af1158015612738573d6000803e3d6000fd5b505050506040513d602081101561274e57600080fd5b810190808051906020019092919050505073ffffffffffffffffffffffffffffffffffffffff16600160009054906101000a900473ffffffffffffffffffffffffffffffffffffffff1673ffffffffffffffffffffffffffffffffffffffff161461289957600260009054906101000a900473ffffffffffffffffffffffffffffffffffffffff1673ffffffffffffffffffffffffffffffffffffffff166338cc48316040518163ffffffff1660e01b8152600401602060405180830381600087803b15801561281d57600080fd5b505af1158015612831573d6000803e3d6000fd5b505050506040513d602081101561284757600080fd5b8101908080519060200190929190505050600160006101000a81548173ffffffffffffffffffffffffffffffffffffffff021916908373ffffffffffffffffffffffffffffffffffffffff1602179055505b6000600160009054906101000a900473ffffffffffffffffffffffffffffffffffffffff1673ffffffffffffffffffffffffffffffffffffffff16632ef3accc86856040518363ffffffff1660e01b81526004018080602001838152602001828103825284818151815260200191508051906020019080838360005b83811015612930578082015181840152602081019050612915565b50505050905090810190601f16801561295d5780820380516001836020036101000a031916815260200191505b509350505050602060405180830381600087803b15801561297d57600080fd5b505af1158015612991573d6000803e3d6000fd5b505050506040513d60208110156129a757600080fd5b81019080805190602001909291905050509050823a02670de0b6b3a7640000018111156129da576000801b915050612b80565b60606129e585612ba1565b9050600160009054906101000a900473ffffffffffffffffffffffffffffffffffffffff1673ffffffffffffffffffffffffffffffffffffffff1663c55c1cb68360008985896040518663ffffffff1660e01b8152600401808581526020018060200180602001848152602001838103835286818151815260200191508051906020019080838360005b83811015612a8a578082015181840152602081019050612a6f565b50505050905090810190601f168015612ab75780820380516001836020036101000a031916815260200191505b50838103825285818151815260200191508051906020019080838360005b83811015612af0578082015181840152602081019050612ad5565b50505050905090810190601f168015612b1d5780820380516001836020036101000a031916815260200191505b5096505050505050506020604051808303818588803b158015612b3f57600080fd5b505af1158015612b53573d6000803e3d6000fd5b50505050506040513d6020811015612b6a57600080fd5b8101908080519060200190929190505050925050505b9392505050565b8060039080519060200190612b9d929190613013565b5050565b6060612bab612c21565b612bb3613093565b612bbf81610400612c2d565b612bc881612c77565b60008090505b8351811015612c0a57612bfd848281518110612be657fe5b602002602001015183612c8590919063ffffffff16565b8080600101915050612bce565b50612c1481612caa565b8060000151915050919050565b60405180590338823950565b6000819050600060208281612c3e57fe5b0614612c575760208181612c4e57fe5b06602003810190505b808360200181815250506040518084526000815281810160405250505050565b612c82816004612cb8565b50565b612c928260028351612cd9565b612ca58183612e1990919063ffffffff16565b505050565b612cb5816007612cb8565b50565b612cd5601f60058360ff16901b1783612ec490919063ffffffff16565b5050565b60178111612d0557612d008160058460ff16901b60ff161784612ec490919063ffffffff16565b612e14565b60ff8111612d4657612d2a601860058460ff16901b1784612ec490919063ffffffff16565b612d4081600185612f049092919063ffffffff16565b50612e13565b61ffff8111612d8857612d6c601960058460ff16901b1784612ec490919063ffffffff16565b612d8281600285612f049092919063ffffffff16565b50612e12565b63ffffffff8111612dcc57612db0601a60058460ff16901b1784612ec490919063ffffffff16565b612dc681600485612f049092919063ffffffff16565b50612e11565b67ffffffffffffffff8111612e1057612df8601b60058460ff16901b1784612ec490919063ffffffff16565b612e0e81600885612f049092919063ffffffff16565b505b5b5b5b5b505050565b612e21613093565b82602001518360000151518351011115612e5157612e50836002612e4a86602001518651612f6b565b02612f87565b5b60008060008451905085518051602081830101945086518101825260208701935050505b60208110612e985781518352602083019250602082019150602081039050612e75565b60006001826020036101000a039050801983511681855116818117865250508694505050505092915050565b81602001516001836000015151011115612eea57612ee9826002846020015102612f87565b5b815180516020818301018381536001820183525050505050565b612f0c613093565b836020015184600001515183011115612f3a57612f39846002612f33876020015186612f6b565b02612f87565b5b60006001836101000a0390508451805184818301018684198251161781528582018352505050849150509392505050565b600081831115612f7d57829050612f81565b8190505b92915050565b606082600001519050612f9a8383612c2d565b612fa48382612e19565b50505050565b6040518060800160405280600073ffffffffffffffffffffffffffffffffffffffff168152602001600081526020016000151581526020016000151581525090565b60405180608001604052806004905b6060815260200190600190039081612ffb5790505090565b828054600181600116156101000203166002900490600052602060002090601f016020900481019282601f1061305457805160ff1916838001178555613082565b82800160010185558215613082579182015b82811115613081578251825591602001919060010190613066565b5b50905061308f91906130ad565b5090565b604051806040016040528060608152602001600081525090565b6130cf91905b808211156130cb5760008160009055506001016130b3565b5090565b9056fea265627a7a72315820cc60db1cfc22575d73ea5c6ad0a47b805f7fd734fcd23a9c3fe51a00c97f7f8a64736f6c634300050c0032",
  "source": "import \"./Ownable.sol\";\nimport \"./provableAPI.sol\";\npragma solidity 0.5.12;\n\ncontract Coinflip is Ownable, usingProvable {\n    uint256 public latestNumber;\n    uint256 constant NUM_RANDOM_BYTES_REQUESTED = 1;\n\n    event LogNewProvableQuery(string description);\n    event generatedRandomNumber(bool randomNumber);\n    event resultOutcome(address player, bool won, uint256 playerBalance);\n\n    // constructor() public {\n    //     update();\n    // }\n\n    mapping(address => bool) public bettings;\n    mapping(bytes32 => Bet) public waiting;\n    mapping(address => uint256) private playerBalances;\n\n    uint256 public balance;\n\n    struct Bet {\n        address player;\n        uint256 betValue;\n        bool heads;\n        bool won;\n    }\n\n    // function update() public payable {\n    //     uint256 QUERY_EXECUTION_DELAY = 0;\n    //     uint256 GAS_FOR_CALLBACK = 200000;\n    //     bytes32 queryId = provable_newRandomDSQuery(\n    //         QUERY_EXECUTION_DELAY,\n    //         NUM_RANDOM_BYTES_REQUESTED,\n    //         GAS_FOR_CALLBACK\n    //     );\n    //     waiting[queryId] = newBet;\n    //     emit LogNewProvableQuery(\n    //         \"Provable query was sent, standing by for the answer...\"\n    //     );\n    // }\n\n    // Old Random Function\n    // function random() public view returns (bool) {\n    //     return (now % 2 != 0);\n    // }\n\n    function flipCoin(bool bet) public payable {\n        require(msg.value <= balance);\n        Bet memory newBet;\n        newBet.heads = bet;\n        //player pays fee for calling oracle\n        newBet.betValue = msg.value - provable_getPrice(\"RANDOM\");\n        newBet.player = msg.sender;\n        // Random Function\n        uint256 QUERY_EXECUTION_DELAY = 0;\n        uint256 GAS_FOR_CALLBACK = 200000;\n        bytes32 queryId = provable_newRandomDSQuery(\n            QUERY_EXECUTION_DELAY,\n            NUM_RANDOM_BYTES_REQUESTED,\n            GAS_FOR_CALLBACK\n        );\n        waiting[queryId] = newBet;\n\n        //bool headsOrTails = random();\n        // if (headsOrTails == bet) {\n        //     balance = balance - (msg.value);\n        //     msg.sender.transfer((msg.value * 2));\n        //     bettings[msg.sender] = true;\n        // } else {\n        //     balance = balance + msg.value;\n        //     bettings[msg.sender] = false;\n        // }\n    }\n\n    function __callback(\n        bytes32 _queryId,\n        string memory _result,\n        bytes memory _proof\n    ) public {\n        require(msg.sender == provable_cbAddress());\n        bool result = (uint256(keccak256(abi.encodePacked(_result))) % 2) != 0;\n        if (result = waiting[_queryId].heads) {\n            waiting[_queryId].won = true;\n            balance = balance - (waiting[_queryId].betValue);\n            playerBalances[waiting[_queryId].player] +=\n                2 *\n                (waiting[_queryId].betValue);\n        } else {\n            waiting[_queryId].won = false;\n            balance += (waiting[_queryId].betValue);\n            //playerBalances[waiting[_queryId].player] - (waiting[_queryId].betValue)\n        }\n        emit generatedRandomNumber(result);\n        emit resultOutcome(\n            waiting[_queryId].player,\n            waiting[_queryId].won,\n            playerBalances[waiting[_queryId].player]\n        );\n        //clear mapping\n        delete waiting[_queryId];\n    }\n\n    function deposit() public payable {\n        balance += msg.value;\n    }\n\n    function getLastFlip(address player) public view returns (bool) {\n        return bettings[player];\n    }\n\n    function getBalance() public view returns (uint256) {\n        return balance;\n    }\n\n    function withdrawAll() public onlyOwner returns (uint256) {\n        uint256 toTransfer = balance;\n        balance = 0;\n        msg.sender.transfer(toTransfer);\n        return toTransfer;\n    }\n}\n",
  "sourcePath": "/Users/lohba/Documents/Projects/Coin-Flip-Dapp-v2/contracts/Coinflip.sol",
  "compiler": {
    "name": "solc",
    "version": "0.5.12+commit.7709ece9.Emscripten.clang"
  },
  "schemaVersion": "3.3.3",
  "updatedAt": "2021-01-05T16:30:04.152Z",
  "networkType": "ethereum",
  "devdoc": {
    "methods": {
      "__callback(bytes32,string)": {
        "details": "The following `__callback` functions are just placeholders ideally     meant to be defined in child contract when proofs are used.     The function bodies simply silence compiler warnings."
      }
    }
  },
  "userdoc": {
    "methods": {}
  }
}